:020000040800F2
:10000000180900209D010008C9230008CD1D000823
:10001000D1220008D5020008C12E0008000000000F
:100020000000000000000000000000006B27000836
:10003000AD03000800000000692700086D270008D4
:10004000B7010008B7010008B7010008B7010008B0
:10005000B7010008B7010008AF030008B7010008A6
:10006000B7010008B7010008B7010008B701000890
:10007000B7010008B7010008B7010008B701000880
:10008000D9020008E5020008B7010008B70100081E
:10009000B7010008B7010008B7010008B701000860
:1000A00015280008B7010008B7010008B7010008CB
:1000B000B7010008B7010008B7010008B701000840
:1000C000B7010008B7010008B7010008B701000830
:1000D000B70100089D2E0008A92E0008B52E0008C3
:1000E000B7010008B7010008B7010008B701000810
:1000F000B7010008B7010008B7010008B701000800
:10010000B7010008B7010008B7010008B7010008EF
:10011000B7010008B7010008B7010008B7010008DF
:10012000B7010008F1020008B7010008B701000894
:10013000B7010008B7010008B7010008B7010008BF
:10014000B7010008B7010008B7010008B7010008AF
:10015000B7010008FD020008B7010008B701000858
:10016000B7010008B7010008B7010008B70100088F
:10017000B7010008B7010008B7010008000000003F
:10018000B7010008B7010008DFF80CD000F090F8C4
:1001900000480047713300081809002006488047CE
:1001A00006480047FEE7FEE7FEE7FEE7FEE7FEE75C
:1001B000FEE7FEE7FEE7FEE70528000889010008E4
:1001C0002DE9F05F0546002092469B46884606468C
:1001D000814640241BE0284641464746224600F01F
:1001E00057F853465A46C01A914110D31146184643
:1001F000224600F03EF82D1A67EB01084F462246D2
:100200000120002100F035F817EB00094E41201EB7
:10021000A4F10104DFDC484631462A464346BDE8E6
:10022000F09FD2B201E000F8012B491EFBD27047CB
:100230000022F6E710B513460A4604461946FFF7B2
:10024000F0FF204610BD30B50B46014600202022AD
:10025000012409E021FA02F59D4205D303FA02F5D3
:10026000491B04FA02F52844151EA2F10102F1DC33
:1002700030BD202A04DB203A00FA02F1002070474A
:100280009140C2F1200320FA03F3194390407047D4
:10029000202A04DB203A21FA02F00021704721FADB
:1002A00002F3D040C2F12002914008431946704742
:1002B000064C074D06E0E06840F0010394E80700B3
:1002C00098471034AC42F6D3FFF762FF8040000835
:1002D000A0400008FEE70000014800F019B9000046
:1002E00094030020014800F013B90000F40300203B
:1002F000014800F00DB9000054040020014800F04E
:1003000007B90000B404002001681823CAB2103AEB
:10031000B2FBF3F2054B6FF30901032A9B5CC36543
:1003200000D9091D8165084670470000604000083B
:1003300010B5014600208B698A6A4FF0C07453B132
:10034000B3F5005F15D072B1012A0CD0022A0AD091
:10035000032A09D104E01AB1012A06D0022A03D1E6
:10036000C96AC90100D5012010BDC96AA142FAD0ED
:1003700010BD002AF7D0012AF2D0022AF3D0032AB6
:10038000F3D010BD30B50468256825F480252560BC
:10039000046863608368402B036803D09960006839
:1003A000C26030BD9A600068C16030BD704710B552
:1003B000012000F033FABDE8104002F0B3BF0000A6
:1003C0002DE9F041184F194C194E3868A8B9194D4C
:1003D000E968686802F0C2FA216808442060A968E8
:1003E000286802F0EBFA31680844306001F026FE1C
:1003F000326811A0216802F07FFD144C144D38685A
:10040000012803D02068284001280AD100220221B7
:10041000104602F0D9F801220221102002F0D4F88F
:10042000EDE7BDE8F08100007000002068000020CA
:100430006C0000209000002061696D5F616E676C48
:10044000653A2825642C2564290000005800002006
:100450000100008072B6FEE72DE9F0410446876D89
:1004600000F0E6FA064694F835000025022806D08A
:100470008020606584F834500120BDE8F081206858
:10048000016821F0160101602068416921F08001B6
:100490004161206C08B9A06C20B12068016821F08E
:1004A000080101602068016821F0010101600CE091
:1004B00000F0BEFA801B052807D9202060650320C4
:1004C00084F8350084F83450D7E720680068C00706
:1004D000EED194F85C103F208840B860012084F889
:1004E000350084F834500020C7E790F83510022911
:1004F00003D08021416501207047052180F8351027
:100500000068016821F001010160002070470000CF
:100510002DE9F84304464FF00009CDF800906348F8
:100520004FF41651A56D0068B0FBF1F72E6894F8F2
:100530005C10082000FA01F131420FD021680A68EE
:1005400052070BD50A6822F004020A6094F85C1086
:100550008840A860606D40F00100606594F85C1010
:100560004FF0010808FA01F0304208D021684969CB
:10057000090604D5A860606D40F00200606594F83B
:100580005C1004208840304208D02168096889073F
:1005900004D5A860606D40F00400606594F85C10BC
:1005A00010208840304218D021680968090714D506
:1005B000A86020680168490304D50068000308D5D5
:1005C000A16C07E00168C90503D4016821F00801A6
:1005D0000160216C09B12046884794F85C10202006
:1005E0008840304231D021680968C9062DD5A860FD
:1005F00094F8350005282068016806D0490347D5DE
:10060000006800031DD4616C1CE021F0160101603C
:100610002068416921F080014161206C08B9A06C1B
:1006200020B12068016821F00801016094F85C1095
:100630003F208840A86084F8358084F83490216D8C
:100640001FE0E16B09B120468847606D00282BD080
:10065000606DC00714D0052084F83500206801685B
:1006600021F0010101600098401C0090B84203D8BD
:1006700020680068C007F6D184F8358084F834908B
:10068000E16C002910D001B02046BDE8F0430847D6
:100690000168C905D5D4016821F01001016084F812
:1006A000358084F83490CCE7BDE8F8838C000020D6
:1006B0002DE9F041044600F0BBF906465CB102208A
:1006C00084F83500002584F834502068016821F052
:1006D000010101600DE00120BDE8F08100F0A8F902
:1006E000801B052805D920206065032084F835008B
:1006F000F2E720680068C007F0D12268116820483E
:100700000140D4E901031843D4E9033633431843C5
:1007100063691843A3691843E3691843236A1843BC
:100720000843616A042903D1D4E90B131943084330
:10073000106020684069666A20F0070130460E4369
:10074000012704280CD1A06A0643E06A40B1204684
:10075000FFF7EEFD20B14020606584F83570BAE700
:10076000206846612046FFF7CFFD94F85C203F21CA
:1007700091408160656584F835700020ACE7000029
:100780003F8010F02DE9F0410446866D90F834006A
:10079000002501280DD0012084F8340094F835702C
:1007A0000020012F07D084F8340002252846BDE838
:1007B000F0810220FBE7022784F83570606520464F
:1007C000FFF7E0FD94F85C103F208840B06020689F
:1007D000016841F016010160206C20B120680168B9
:1007E00041F0080101602068016841F001010160E9
:1007F000DCE7000070B5044600F01AF90546601CFD
:1008000002D004480078044400F012F9401BA042D2
:10081000FAD370BD8000002070470000044910B575
:100820000A68024202D00860FFF7F6FF10BD000020
:10083000143C01402DE9F84FDFF8BCA1002201254E
:100840000AF1040B03264FF00F090BF1040E00BF51
:100850000B6805FA02F42340A34270D10F7907F028
:100860000307012F01D0022F16D187684FEA4208F3
:1008700006FA08FC27EA0C07D1F80CC00CFA08FCB1
:100880004CEA070CC0F808C04768A7430C79C4F3CA
:10089000001494403C4344600C79E443A4070AD01C
:1008A000C4684FEA420C06FA0CF7BC438F6807FA9B
:1008B0000CF72743C7600C7904F00304022C12D113
:1008C000D40800EB840CDCF820405707FF0E09FA2F
:1008D00007F824EA0804D1F8108008FA07F848EA73
:1008E0000408CCF8208004684FEA420C06FA0CF7A2
:1008F000BC430F7907F0030707FA0CF7274307609B
:100900004C6814F4403F70D03C4C276847F4804753
:100910002760246822F0030704F480440094384CD4
:1009200007EB040CDCF8084897074FEA177809FA38
:1009300008F7BC43334FB84202D1002724E054E00B
:10094000314FB84201D101271EE0304FB84201D1EA
:10095000022719E02E4FB84201D1032714E02D4F92
:10096000B84201D104270FE02B4FB84201D105272F
:100970000AE02A4FB84201D1062705E0284FB842C5
:1009800001D1072700E0082707FA08F72743CCF82A
:100990000878DAF800405746D1F804C09C435FEA73
:1009A000CC3C00D51C433C60DBF800405F46D1F8EE
:1009B00004C09C435FEA8C3C00D51C433C60DEF8DD
:1009C00000407746D1F804C09C435FEACC2C00D5A8
:1009D0001C433C60084F0C373C68D1F804C09C4372
:1009E0005FEA8C2C00D51C433C60521C102AFFF49B
:1009F0002FAFBDE8F88F0000003C014044380240B2
:100A000000300140000002400004024000080240A3
:100A1000000C024000100240001402400018024086
:100A2000001C02400069084000D00120704700000F
:100A300001488068704700008000002070B5040005
:100A400025D094F83D00002520B984F83C5020467C
:100A500000F050F9242084F83D002068016821F05E
:100A6000010101602068016841F4004101602068D3
:100A7000016821F40041016000F0A4FA4D4A616868
:100A8000914201D84C4900E04C49884201D20120F2
:100A900070BD4B492368B0FBF1F15E6826F03F065C
:100AA0000E435E606368934206D94FF496735943D0
:100AB0004FF47A73B1FBF3F12368491C1E6A26F0E8
:100AC0003F06314319626168914210D84900401EC7
:100AD000B0FBF1F2521CC2F30B02042A01D2042033
:100AE00022E0B0FBF1F0401CC0F30B001CE0A26858
:100AF000F2B301EBC10303EB0116431EB3FBF6F3A4
:100B00005B1C43F480431B0549D092B301EBC10247
:100B100002EB0111401EB0FBF1F0401CC0F30B00D2
:100B200040F4804040F400402168CA694CF6FF73ED
:100B30009A431043C861D4E9071001432068026852
:100B400022F0C00211430160D4E90301014320688F
:100B5000826848F2FF339A4311438160D4E905016A
:100B600008432168CA6822F0FF021043C86001E010
:100B70000EE016E02068016841F001010160256483
:100B8000202084F83D00256384F83E50002070BD8D
:100B900001EB4106431EB3FBF6F35B1CB3E70120F8
:100BA000C2E701EB4101401EB0FBF1F0401CC0F375
:100BB0000B00B7E7A086010080841E0000093D00FD
:100BC00040420F002DE9FF4F83B09A46DDE91197AF
:100BD00093460446DDF84080FFF72AFF054694F867
:100BE0003D0020287FD1192301224049204600954D
:100BF00001F07EF9002876D194F83C00012872D0EB
:100C0000012084F83C0020680168C90703D101680D
:100C100041F0010101602068016821F40061016078
:100C2000212084F83D00402084F83E000026266400
:100C3000C4F82480A4F82A90608D20852C48E062B6
:100C4000CDE9007553465A462046049901F0D6F87E
:100C500070B930E02A463946204601F0C8F958B14B
:100C6000206C042804D12068016841F400710160FF
:100C7000012007B0BDE8F08F606A21680078086144
:100C8000606A401C6062218D491E89B22185628D97
:100C9000521E628522685369DB435B070BD469B13E
:100CA00000781061606A401C6062208D401E2085C3
:100CB000608D401E6085208D0028CBD12A463946A4
:100CC000204601F0EFF80028CAD154F83D0B016826
:100CD00041F400710160202004F81E09E677667770
:100CE0000020C6E7FFE70220C3E700000200100073
:100CF0000000FFFF10B586B0044614216846FFF7D8
:100D000097FA13492068884220D1124800210268CE
:100D100042F002020260006800F002000590C0206C
:100D200000901220CDE901010320039004200490DB
:100D300069460948FFF77EFD06481030016841F416
:100D400000110160006800F40010059006B010BDAD
:100D500000540040303802400004024002488168DC
:100D60000278114481607047800000200B4810B564
:100D7000016841F400710160016841F48061016023
:100D8000016841F480710160032000F06FF80F20CA
:100D900000F006F800F024F8002010BD003C0240EE
:100DA00070B50D4D04464FF47A712878B1FBF0F020
:100DB0000A490968B1FBF0F000F00CFB48B9102CAF
:100DC00007D200222146501E00F030F800206C604F
:100DD00070BD012070BD0000800000208C0000204C
:100DE0000A4808B5016841F480410160006800F4D8
:100DF000804000900548001F016841F0805101606B
:100E0000006800F08050009008BD000044380240A7
:100E1000002809DB00F01F020121914040098000F9
:100E200000F1E020C0F8001170470000F0B40E4B54
:100E30001B680C46C3F30223C3F10705042D00D938
:100E40000425191D072901D2002300E0DB1E01261D
:100E500006FA05F1491E214099409E40761E164033
:100E60003143F0BC02F080B80CED00E0064900F020
:100E7000070208684FF6FF03184040EA0220034AC1
:100E800010430860704700000CED00E00000FA0518
:100E90002DE9F0470E46050065D0DFF81481D8F83B
:100EA0000000F7B200F00700B04207D288F80070E7
:100EB000D8F8000000F00700B04254D128683D4C3B
:100EC000810712D5400703D5206840F4E050206028
:100ED0002878000703D5206840F46040206020682F
:100EE000A96820F0F000084320602878C0072DD0C2
:100EF000304968680839012812D0022813D0032825
:100F000011D00968890700292DDA216821F0030131
:100F100001432160FFF78CFD814641F2883A0EE0E3
:100F200009688903EFE709688901ECE7FFF780FDAD
:100F3000A0EB0901514502D90320BDE8F0872068E4
:100F4000696800F00C00B0EB810FEFD1D8F8001009
:100F5000404601F00701B14207D90770006800F070
:100F60000700B04201D00120E7E72878400705D507
:100F70002068E96820F4E0500843206028780007E2
:100F800006D52068296920F4604040EAC10020604D
:100F900000F038F82168084AC1F30311515CC840D9
:100FA0000649086006480068FFF7FAFE0020C4E71B
:100FB000003C024008380240684000088C000020D5
:100FC000840000200448054900680968044AC1F308
:100FD0008221515CC84070478C00002008380240D4
:100FE000784000080448054900680968044AC1F3CC
:100FF0004231515CC84070478C00002008380240E4
:1010000078400008154810B5006810F00C0214482C
:1010100013D01449042A0FD0082A0ED10F4C241FD4
:101020002268236802F03F025B0207D52068C0F304
:101030008810A0FB010106E0084610BD2168C1F33D
:101040008811A1FB00010023FFF7BAF82168C1F362
:101050000141491C4900B0FBF1F010BD08380240C5
:101060000024F40040787D012DE9F84F04006ED093
:101070002078DFF84C93C007A9F104054AD009F1A4
:1010800004000168C1F38101012908D00068C0F3A0
:10109000810002280AD1D9F80000400206D528684C
:1010A000800337D560680028E1D033E06068B0F590
:1010B000803F10D0B0F5A02F286810D020F48030E9
:1010C0002860286820F4802028606068A8B1FFF7B5
:1010D000AFFC06460DE0286840F48030F4E740F4A9
:1010E00080202860F7E700BFFFF7A2FC801B642880
:1010F00073D828688003F7D50CE0FFF799FC064603
:1011000005E000BFFFF794FC801B6428F0D8286836
:101110008003F7D42078DFF8AC8280074FF0000A14
:101120003ED5A748001D016811F00C0F08D00068DB
:10113000C0F3810002280BD1D9F80000400207D487
:101140002868800716D5E068012800D112E033E155
:10115000E068B8B10120C8F80000FFF769FC064656
:1011600005E000BFFFF764FC801B0228C0D8286898
:101170008007F7D52868216920F0F80040EAC1000F
:1011800028600DE0C8F800A0FFF752FC064604E016
:10119000FFF74EFC801B02281FD828688007F7D471
:1011A0002078000722D5864F87486169703771B172
:1011B00001210160FFF73CFC064604E0FFF738FC24
:1011C000801B022809D838688007F7D50EE0C0F8E0
:1011D00000A0FFF72DFC064605E082E0FFF728FCA3
:1011E000801B02287DD838688007F7D42078400714
:1011F00068D5DFF8CCB100270BF13C0BDBF8000021
:10120000C0000BD4DBF8001041F08051CBF8001087
:10121000DBF80000012700F0805000906B4E306832
:10122000C00510D4306840F480703060FFF700FCD7
:10123000009005E0FFF7FCFB0099401A022850D807
:101240003068C005F6D55E4EA0686C3601280FD018
:101250000528306810D020F001003060306820F0A0
:1012600004003060A068B8B1FFF7E2FB00900FE027
:10127000306840F00100F4E740F004003060F7E728
:10128000FFF7D6FB0099411A41F28830814266D8B7
:1012900030688007F4D50EE0FFF7CAFB009007E046
:1012A000FFF7C6FB0099411A41F28830814256D8B7
:1012B00030688007F4D42FB1DBF8001021F08051A2
:1012C000CBF80010A069C8B33D49091D0968C1F3F6
:1012D000810102294AD00228504607D0C8F8600090
:1012E00000E03CE0FFF7A4FB04463BE04746C8F8BB
:1012F0006000FFF79DFB064605E000BFFFF798FB87
:10130000801B02282BD828688001F7D4D4E9070174
:101310000843A16A2E4A490802EB0141626A41EA88
:101320008211084394F82C1040EA0161C9F80010BA
:1013300001203866FFF77CFB044606E03EE000BF74
:10134000FFF776FB001B022809D828688001F7D533
:1013500034E000BFFFF76CFB001B022802D903201A
:10136000BDE8F88F28688001F4D427E00128F7D081
:10137000D9F80000E26900F4800191421CD1226A90
:1013800000F03F01914217D147F6C071626A0140F7
:10139000B1EB821F10D1A26A4FF0FF3300F440314D
:1013A00003EB5202B1EB024F06D194F82C1000F07F
:1013B0007060B0EB016F01D00120D1E70020CFE7D2
:1013C0000438024000004742800E4742007000404F
:1013D0000000FFFF10B5401EB0F1807F01D3012057
:1013E00010BD4FF0E02460610F21601701F0BCFDDB
:1013F0000020A06107202061002010BD70477047C9
:1014000010B5040003D094F83D0010B107E00120AE
:1014100010BD002084F83C00204600F01FF8022098
:1014200084F83D00211D206801F0FEF9012084F8B8
:10143000460084F83E0084F83F0084F8400084F8B9
:10144000410084F8420084F8430084F8440084F8A2
:10145000450084F83D00002010BD000008B500687C
:101460000B49884212D10B48016841F48031016078
:101470000068002200F48030009001211820FFF75E
:10148000D5FCBDE808401820FFF7C2BC08BD00002D
:10149000004001404438024090F83D10012901D03D
:1014A00001207047022180F83D100168CA6842F0AF
:1014B0000102CA6000681149884214D0B0F1804F1F
:1014C00011D00F4988420ED00E4988420BD00E49E8
:1014D000884208D00D49884205D00D49884202D083
:1014E0000C49884204D1816801F00701062903D024
:1014F000016841F0010101600020704700000140D7
:101500000004004000080040000C004000040140BE
:10151000004001400018004070B5044690F83C00BF
:101520000025012817D0012684F83C60022084F8A9
:101530003D002068826822F0770222F47F428260B8
:101540000868502838D00DDC20284FD005DC90B337
:10155000102811D14AE0022070BD302846D0402822
:101560000AD13BE060282FD070280DD0B0F5805F05
:1015700003D0B0F5005F12D0012584F83D60002053
:1015800084F83C00284670BDCB68D1E90121206871
:1015900001F0AEF92068816841F0770109E0CB687D
:1015A000D1E90121206801F0A3F92068816841F4A4
:1015B00080418160E1E719E0CA684968206801F06C
:1015C000A9F95021206806E0CA684968206801F03E
:1015D000B2F96021206801F095F9CEE7CA68496840
:1015E000206801F097F940212068F4E7226801465D
:1015F0001046F0E7704770B50446006801694FF087
:101600000005C943890715D4C168C943890711D4A6
:10161000E91E01610120207720688069800720464B
:1016200002D0FFF7E7FF04E000F098F8204600F052
:1016300096F8257720680169C943490717D4C1681E
:10164000C943490713D46FF00401016102202077D8
:101650002068806910F4407F204602D0FFF7CAFF5F
:1016600004E000F07BF8204600F079F82577206848
:101670000169C943090716D4C168C943090712D4CF
:101680006FF008010161042020772068C06980079D
:10169000204602D0FFF7AEFF04E000F05FF82046DE
:1016A00000F05DF8257720680169C943C90617D4A1
:1016B000C168C943C90613D46FF010010161082045
:1016C00020772068C06910F4407F204602D0FFF7E1
:1016D00091FF04E000F042F8204600F040F8257742
:1016E00020680169C943C90708D1C168C943C9074E
:1016F00004D1891E0161204600F032F8206801699A
:10170000C943090609D4C168C943090605D46FF065
:10171000800101612046FFF771FE20680169C9431D
:10172000490609D4C168C943490605D46FF0400190
:101730000161204600F015F820680169C943890657
:101740000BD4C168C943890607D46FF02001016139
:101750002046BDE87040FFF752BE70BD704770472D
:101760007047704770477047F8B5016804460868CD
:10177000CA684B6910F00F0F4FF000055AD003F004
:10178000010602F49077374365D0C10705D0D10533
:1017900003D5216C41F001012164410705D5D9072A
:1017A00003D0216C41F002012164810705D5D907DE
:1017B00003D0216C41F004012164010707D502F038
:1017C0002001314303D0216C41F008012164216CD8
:1017D00000293BD0800604D5900602D5204601F0B2
:1017E000F3F920684069216CC0F3801001F0080112
:1017F000014320462BD001F0B2F920684069400631
:1018000021D52068143050E8001F21F0400140E845
:101810000012002AF5D1A06BA8B16C490165A06B3C
:10182000FEF763FE002811D0A06B016D01B0BDE88A
:10183000F040084783060ED593060CD52046BDE838
:10184000F84001F0C1B92046FFF78DFFF8BDFFF762
:101850008AFF2564F8BD266B2023012E79D1C606A8
:1018600077D5D60675D5086848680090486940065F
:1018700040D5A16B086840680004000CEAD0A28D36
:101880008242E7D9E085C869B0F5807F2DD0206815
:101890000C3050E8001F21F4807140E80012002A4B
:1018A000F5D12068143050E8001F21F0010140E814
:1018B0000012002AF5D12068143050E8001F21F0F2
:1018C000400140E80012002AF5D184F83E3025633B
:1018D00020680C3050E8001F21F0100140E8001291
:1018E000002AF5D1A06BFEF7B7FDA08DE18D401A5F
:1018F00081B229E0A08DE18D401A81B2E08D0028EF
:10190000A8D00029A6D020680C3050E8002F22F47F
:10191000907240E80026002EF5D12068143050E87F
:10192000002F22F0010240E80026002EF5D184F8B5
:101930003E30256320680C3050E8002F22F0100262
:1019400040E80023002BF5D12046FFF70BFFF8BD40
:10195000FFE705062BD5150629D594F83D0021286B
:10196000F5D1A068B0F5805F01D12069B0B1206ADF
:10197000411C2162216800784860E08C401E000410
:10198000000CE084E3D12068C16821F08001C160CF
:101990002068C16841F04001C160D8E7206A008832
:1019A000C0F308004860206A801C2062E5E740061A
:1019B000CDD55006CBD5CA68204622F04002CA6079
:1019C00084F83D3000F000FAC1E700001D2A00084D
:1019D00070B5040004D094F83D00002510B106E075
:1019E000012070BD84F83C50204600F023F82420EC
:1019F00084F83D002068C16821F40051C160204690
:101A000001F042F92068016921F4904101612068E8
:101A1000416921F02A0141612068C16841F4005107
:101A2000C1602564202084F83D0084F83E00002039
:101A300070BD00002DE9F04F87B0044614216846C0
:101A4000FEF7F6FB7948784AD4F800C07749143895
:101A5000022303260727DFF8D891002594451DD1DE
:101A60000A6842F010020A60096801F0100105914D
:101A7000016841F0010101600068694600F0010061
:101A8000059070028DE8E9004846FEF7D3FE00227B
:101A900002212520FFF7CAF9252054E0634ADFF828
:101AA0009481121F4FF0400B4FF4806AC4454FD110
:101AB000116841F400311160116801F400310591A1
:101AC000016841F0010101600068694600F0010011
:101AD00005900C208DE8E9004846FEF7ABFE574E16
:101AE00055484FF000693060C6E90195C6E9035AD0
:101AF00075614FF40038B561C6E90758574630465E
:101B00007562FEF7D5FD08B1FEF7A4FCA663B463C9
:101B10004A4E494860361830C6E903577561B561C9
:101B2000C6E90758756286E8010A3046FEF7C0FD2F
:101B300008B1FEF78FFC6663002201212620B46302
:101B4000FFF774F92620FFF763F907B0BDE8F08FBF
:101B5000DFF8EC80C4451ED1116841F4802111608A
:101B6000116801F480210591016841F002010160D2
:101B70000068694600F0020005904FF440608DE86F
:101B8000E9003048FEF756FE002203212720FFF728
:101B90004DF92720D7E72C4A9445D6D10A6842F060
:101BA00020020A60096801F020010591016841F0F6
:101BB000040101600068694600F004000590C0203F
:101BC0008DE86900082004902048FEF733FE1B4E84
:101BD0001F48C0364FF020683060C6E90185C6E96D
:101BE000035A7561B561F5613562574630467562D5
:101BF000FEF75EFD08B1FEF72DFCA663B463154E3B
:101C00001348C6E903577561B561F56135627830EF
:101C1000756286E801093046FEF74AFD08B1FEF715
:101C200019FC6663B46390E7001001404438024039
:101C300000000240004400408860024094030020FD
:101C40000048004000040240001401400008024027
:101C500028640240B404002090F83E30202B0ED1BE
:101C600059B152B190F83C30012B08D0012380F8D3
:101C70003C300023036301F08DB80120704702203F
:101C800070477047704700002DE9F843044690F80C
:101C90003D001F4616460D4620284CD1C5B1BEB1A9
:101CA00094F83C00012846D0012084F83C004FF015
:101CB0000008C4F84080212084F83D00FEF7B8FEFB
:101CC000A6848146E684A068B0F5805F03D004E076
:101CD0000120BDE8F883206928B12E465FF0000599
:101CE00084F83C800EE00026FAE78021204601F0CF
:101CF00099F8A0B9AEB116F8010B21684860E08CE4
:101D0000401EE084E08C4B464FF000020097002814
:101D1000EBD14FF04001204601F084F830B10320B0
:101D2000D7E735F8020BC0F30800E6E7202084F877
:101D30003D000020CDE70220CBE7000070B504464F
:101D400090F83D00202836D191B38AB394F83C0036
:101D5000012830D0012084F83C002162A284E28472
:101D600000252564212084F83D00636B1348D86367
:101D7000636B13481864636B1248D864606B134636
:101D800005652668606B321DFEF7FCFC21686FF06C
:101D90004000086084F83C502068143050E8001F70
:101DA00041F0800140E80012002AF5D1002070BD0A
:101DB000FFE70120FBE70220F9E70000132B0008F2
:101DC000552B00082D2A000870477047FEE7016870
:101DD0004A69D24352050FD46FF480624A610021F0
:101DE00040F8301F202242738173026942F00402DE
:101DF0000261017301207047002070472DE9F8430C
:101E0000044600680D46DDE90897016898461646C5
:101E100041F4807101604B4600224FF001112046D1
:101E2000009700F065F848B120680068C00502D549
:101E30004FF4007020640320BDE8F883216805F0AA
:101E4000FE0008613B464A461549204600F084F8EA
:101E500088B920684169806900903A464946204621
:101E600000F0C5F848B1206C042804D1206801684E
:101E700041F4007101600120DEE7F5B2B8F1010F15
:101E800009D02168300A08613A464946204600F0E8
:101E9000AEF80028E7D1206805610020CCE70000FB
:101EA0000200010070B516460D4604460DE02046BE
:101EB000FFF78DFF08B1012070BD681C05D0FEF74B
:101EC000B7FD801BA84207D835B120684069C043E0
:101ED0004007ECD4002070BD002044F8300F2021D2
:101EE0006173A073216941F0200121612073E2E751
:101EF0002DE9F0471E4690460D460446C1F30747BC
:101F0000DDF8209008E0701C06D0FEF791FDA0EBF4
:101F10000900B0420FD876B12068012F18D080692F
:101F200025EA00000004000C14D000214145EAD04D
:101F30000020BDE8F087002044F8300F20216173B5
:101F4000A073216941F02001216120730120F0E795
:101F50004069E5E70121E9E72DE9F0479A46914616
:101F60000E46044600254FF02008C1F3074725E040
:101F700020684069C043400514D42068016841F4DA
:101F80000071016021686FF480604861256384F806
:101F90003D8084F83E50206C40F00400206484F8BA
:101FA0003C501FE0B9F1FF3F08D0FEF741FDA0EB28
:101FB0000A0149450CD8B9F1000F09D02068012F5A
:101FC00013D0806926EA00000004000C0BD0CFE794
:101FD00044F8305F84F80D80A573206940F020003C
:101FE000206125730120BDE8F0874069EAE770B5FC
:101FF00016460D4604460DE02046FFF7E8FE08B100
:10200000012070BD681C05D0FEF712FD801BA842A0
:1020100007D835B120684069C0430006ECD40020E1
:1020200070BD002044F8300F20216173A073216936
:1020300041F0200121612073E2E700000B4840F2EB
:10204000465102688A4201DC016004E040F20E63FE
:102050009A4200DB0360064802688A4203DD40F2D0
:1020600072618A4200DB0160704700006800002056
:102070006C000020194808B5016841F400110160A6
:10208000016801F400110091016841F480010160D0
:102090000068002200F48000009011461020FEF736
:1020A000C5FE1020FEF7B4FE002211461120FEF7F7
:1020B000BDFE1120FEF7ACFE002211463920FEF7CE
:1020C000B5FE3920FEF7A4FE002211464520FEF79A
:1020D000ADFEBDE808404520FEF79ABE303802400C
:1020E00000B587B014216846FEF7A2F81A480168C7
:1020F00041F080010160016801F0800105910168F3
:1021000041F001010160016801F0010105910168E0
:1021100041F002010160016801F0020105910168CE
:1021200041F0040101600068694600F00400059078
:10213000012000904FF4881001900220029007487F
:10214000FEF778FB002211460620FEF76FFE062000
:10215000FEF75EFE07B000BD3038024000000240CE
:102160000D4810B50B4901600C49416000214FF446
:1021700080428160C0E9031241618161C1610162F5
:10218000FEF75CFC002803D0BDE81040FEF762B902
:1021900010BD000000540040E8010020A0860100AE
:1021A0001FB5002111480091019102910E4A03913F
:1021B000026044F29F12C0E9012140F2F312C0E92B
:1021C00003218161FFF71CF908B1FEF743F94FF4D1
:1021D0008050009069460548FFF79EF9002801D01D
:1021E000FEF738F91FBD0000004001403C0200200E
:1021F0000C4810B50A4901604FF4E13141600021FB
:1022000081600C22C160C0E904128161C161FFF7E5
:10221000DFFB002803D0BDE81040FEF71BB910BD5E
:1022200000100140840200200C4810B50A490160EA
:102230004FF416514160002181600C22C160C0E959
:1022400004128161C161FFF7C3FB002803D0BDE820
:102250001040FEF7FFB810BD00440040C802002047
:102260000C4810B50A4901604FF416514160002135
:1022700081600C22C160C0E904128161C161FFF775
:10228000A7FB002803D0BDE81040FEF7E3B810BD5F
:10229000004800400C0300200C4810B50A490160BA
:1022A0004FF4E1314160002181600C22C160C0E93E
:1022B00004128161C161FFF78BFB002803D0BDE8E8
:1022C0001040FEF7C7B810BD0014014050030020B5
:1022D000FEE7000070B5164D1649174C28680860D7
:1022E00020682061606860611448154E01682160B3
:1022F000416861608168A160C168E1600169316025
:102300004069286000F03CF8D4E900210DA000F0FD
:10231000F3FDD4E902210FA000F0EEFD12A0316818
:1023200000F0EAFD2968BDE8704012A000F0E4BDAD
:10233000740000207800002090000020E8000020B9
:10234000700000200A41494D3A2825642C2564205C
:102350002900000043555252454E543A2825642C1A
:1023600025642029000000000A696673746F703DBF
:10237000256409006D6565743D25640A2000000030
:1023800010484FF41B720168914201DA002901DC08
:10239000016901608168914201DA002901DC8169EB
:1023A000816041684FF4F072914201DA002901DC4A
:1023B00041694160C168914201DA002901DCC169CB
:1023C000C160704790000020FEE770B5002404F162
:1023D000B000C0B200F0A4F9002000F0A1F9102074
:1023E00000F09EF90025002000F0ACF96D1CEDB264
:1023F000802DF8D3641CE4B2082CE8D370BD10B56E
:10240000C820FEF7F7F9BDE8104000F05BBD000002
:1024100010B5334C2068012828D1002211461046FF
:1024200000F086F801220021102000F081F802223D
:102430000021202000F07CF803220021302000F051
:1024400077F82848006800EBD07121F00101814243
:102450000CD1254920680968884207D121494FF6E7
:10246000FF7306220A312148FFF70EFC206898B955
:1024700000221146104600F081F8012200211020B0
:1024800000F07CF802220021202000F077F80322DF
:102490000021302000F072F800220221104600F0E6
:1024A000B9F801220221102000F0B4F8104811A15F
:1024B0000268124800F044FD1023104A0421002055
:1024C00000F012F90E480FA102680C4800F038FD28
:1024D00010230621BDE81040084A002000F004B98E
:1024E0007400002058000020780000200C03002019
:1024F00068000020506963683A256400C00000202D
:102500006C0000205961773A2564000010B504463C
:10251000B031C8B200F004F9102040EA141000F005
:10252000FFF804F00F00BDE8104000F0F9B800001B
:102530002DE9F04115460E460746FFF7E7FF0E4826
:10254000002400EB8515285D00F0FCF8641CE4B263
:10255000102CF8D3761CF1B23846FFF7D7FF0024D1
:10256000281990F8200000F0EDF8641CE4B2102C5B
:10257000F6D3BDE8F0810000603D00082DE9F04190
:1025800015460E460746FFF7C1FF0E48002400EB34
:102590008515285D00F0D6F8641CE4B2102CF8D341
:1025A000761CF1B23846FFF7B1FF0024281990F8E5
:1025B000200000F0C7F8641CE4B2102CF6D3BDE88C
:1025C000F0810000603E00082DE9F04115460E46FE
:1025D0000746FFF79BFF0E48002400EB8515285D9A
:1025E00000F0B0F8641CE4B2102CF8D3761CF1B201
:1025F0003846FFF78BFF0024281990F8200000F0E0
:10260000A1F8641CE4B2102CF6D3BDE8F081000000
:10261000603F00082DE9F04115460E460746FFF7DA
:1026200075FF0E48002400EB8515285D00F08AF840
:10263000641CE4B2102CF8D3761CF1B23846FFF7D4
:1026400065FF0024281990F8200000F07BF8641C36
:10265000E4B2102CF6D3BDE8F0810000E03F0008A2
:102660002DE9F041203A00240D468046D6B27F285D
:1026700003D900208D1C8046EDB2102B29460FD0C7
:10268000FFF744FF164906EB460001EB4005285DC5
:1026900000F058F8641CE4B2062CF8D3BDE8F081D1
:1026A000FFF734FF0F4F00BF04EB0610385C00F05B
:1026B00049F8641CE4B2082CF6D36D1CE9B240461C
:1026C000FFF724FF5FF0000404EB06103844007AA3
:1026D00000F038F8641CE4B2082CF5D3DEE7000003
:1026E00058350008803700082DE9F0419846174614
:1026F0000E46044600250DE0434631462046FFF7CE
:10270000AFFF0834E4B2782C02D90024B61CF6B22C
:102710006D1CEDB27A5D002AEED1BDE8F0810000BB
:1027200001B584B001214FF4807204A88DE8070040
:102730000B46002278210248FEF744FA05B000BD9E
:10274000E801002001B584B001214FF4807204A893
:102750008DE807000B46402278210248FEF732FA46
:1027600005B000BDE801002070477047FEF7F6BADB
:1027700030B593B030216846FDF75AFD14210CA8FE
:10278000FDF756FD1D480025016841F080510160AC
:10279000006800F0805011901948016841F48041B0
:1027A00001600068022400F4804011900120039031
:1027B00010200490009406940820CDE90750A8202A
:1027C000CDE9090404200B906846FEF74DFC08B1E2
:1027D00072B6FEE70CA90F2081E831004FF4A0503B
:1027E0000F904FF48050109005210CA8FEF750FB7D
:1027F000002801D072B6FEE713B030BD4038024069
:10280000007000400248016841F4700101607047A7
:1028100088ED00E010B50348FEF7EDFEBDE810407E
:10282000FDF7CEBD3C020020F0B50268254C264DD8
:10283000264E274F274B4FF0804CA04209D06045D1
:1028400007D0A84205D0B04203D0B84201D0984288
:1028500004D122F0700E4A6842EA0E02A0421BD058
:10286000604519D0A84217D0B04215D0B84213D055
:10287000984211D0184DA8420ED0184DA8420BD046
:10288000174DA84208D0174DA84205D0164DA842B2
:1028900002D0164DA84203D122F44075CA682A43DB
:1028A0004D6922F080022A4302608A68C2620A6887
:1028B0008262A04201D0984201D1096901630121DD
:1028C0004161F0BD000001400004004000080040EC
:1028D000000C004000040140004001400044014061
:1028E0000048014000180040001C0040002000404B
:1028F00010B5846842EA032224F47F440A43224349
:10290000826010BD826822F070020A4342F0070123
:102910008160704710B5036A046A24F00104046200
:10292000846924F0F00444EA021423F00A020A4302
:102930008461026210BD10B5036A23F010030362C4
:102940008369046A23F4704343EA023224F0A0034B
:1029500043EA01118261016210BD0000421A16496A
:1029600040F26C73486A10444862984202DC5B4251
:10297000984200DA184600EE102A4862D1ED000AAB
:10298000B8EEC00A91ED011A60EE800A00EE100A5E
:10299000086AB8EEC00A101A41EE000A00EE100AEA
:1029A00091ED021A0A62B8EEC00A41EE000ABDEECD
:1029B000E00A10EE100A70471C000020421A164967
:1029C0004FF4C863C8691044C861984202DC5B4296
:1029D000984200DA184600EE102AC861D1ED030AC9
:1029E000B8EEC00A91ED041A60EE800A00EE100AFB
:1029F0008869B8EEC00A101A41EE000A00EE100A0B
:102A000091ED051A8A61B8EEC00A41EE000ABDEEEA
:102A1000E00A10EE100A70471C00002010B5806B11
:102A20000021C185C184FEF79EFE10BD70B5846B88
:102A30002068406994F83D10C0F3C010002521299A
:102A400004D118B1E584204600F0B0F82068406950
:102A500094F83E10C0F38010222904D118B1E58506
:102A6000204600F07CF8206C40F0100020642046E6
:102A7000FEF779FE70BD10B50146806B09680968E4
:102A8000C9052FD40021C18501680C3151E8002F00
:102A900022F4807241E80023002BF5D10168143143
:102AA00051E8002F22F0010241E80023002BF5D16C
:102AB0000168143151E8002F22F0400241E8002360
:102AC000002BF5D1202180F83E10016B012909D19E
:102AD00001680C3151E8002F22F0100241E8002378
:102AE000002BF5D1016B012902D0FFF7CAF810BD08
:102AF000818DFEF737FE10BD10B5806B016B01298B
:102B000002D0FFF7BFF810BD818D4908FEF72AFEFD
:102B100010BD10B50146806B09680968C90516D457
:102B20000021C1840168143151E8002F22F0800295
:102B300041E80023002BF5D101680C3151E8002F4A
:102B400042F0400241E80023002BF5D110BDFFF711
:102B50003BF910BD10B5806BFFF737F910BD016868
:102B60000C3151E8002F22F4907241E80023002B31
:102B7000F5D10168143151E8002F22F0010241E83B
:102B80000023002BF5D1016B012909D101680C311B
:102B900051E8002F22F0100241E80023002BF5D16C
:102BA000202180F83E1000210163704701680C313C
:102BB00051E8002F22F0C00241E80023002BF5D19C
:102BC000202180F83D10704708B590F83E1022296A
:102BD00001D0022008BD82684FF480539A4201D18F
:102BE000016921B1816A9A421BD04AB10AE00268A8
:102BF000816A5268C2F308020A80816A891C08E06F
:102C0000026972B10268526802F07F020A70816A3A
:102C1000491C8162C18D491E0904090CC18503D07C
:102C200019E002685268F1E70168CA6822F02002E0
:102C3000CA600168CA6822F48072CA6001684A6981
:102C400022F001024A61202180F83E10016B012927
:102C500003D0FFF716F8002008BD002101630168CA
:102C60000C3151E8002F22F0100241E80023002B24
:102C7000F5D101680A68D20602D50A684968009150
:102C8000818DFEF76FFDE6E770B5044600680169C7
:102C9000E26821F44051114301612169A068E269B1
:102CA00008436169114308432168CA6849F20C630B
:102CB0009A430243CA6020684169A26921F44071C5
:102CC0001143416131492068884202D0304988422D
:102CD00002D1FEF787F901E0FEF774F9E2690023FB
:102CE000192164253226B2F5004F626828D0A0FB76
:102CF0000101930F9200FDF763FA0146B0FBF5F076
:102D00006FF01802504301EB800006EB0010B0FB9F
:102D1000F5F000F0F002B1FBF5F002EB0012B1FBB0
:102D2000F5F06FF01803584301EB800006EB00103C
:102D3000B0FBF5F000F00F0021681044886070BD12
:102D4000A0FB010192185B41FDF73AFA0146B0FB86
:102D5000F5F00201B1FBF5F06FF01803584301EBF9
:102D6000800006EBC000B0FBF5F000F0F80002EBCD
:102D70004002B1FBF5F0584301EB800006EBC000C8
:102D8000B0FBF5F000F00700D6E7000000100140AE
:102D90000014014038B5816282850025134604463F
:102DA0000564222084F83E00A26B1B48D063A26B0E
:102DB0001A481064A26B1A48D064A06B0A460565D5
:102DC0002168A06B091DFDF7DDFC206801684068E3
:102DD000009084F83C5020680C3050E8001F41F40B
:102DE000807140E80012002AF5D12068143050E8C4
:102DF000001F41F0010140E80012002AF5D12068CF
:102E0000143050E8001F41F0400140E80012002A51
:102E1000F5D1002038BD0000772A0008F92A000803
:102E20002D2A00082DE9F041984617460E46044623
:102E3000069D27E0681C25D02DB1FDF7F9FDA0EB1C
:102E40000800A8421ED920680C3050E8001F21F469
:102E5000D07140E80012002AF5D12068143050E803
:102E6000001F21F0010140E80012002AF5D12020C6
:102E700084F83D0084F83E00002084F83C000320E4
:102E8000BDE8F0812068006836EA000004D0002028
:102E9000B842CFD00020F3E70120F9E70148FEF760
:102EA00063BC0000840200200148FEF75DBC000006
:102EB000C80200200148FEF757BC00000C030020A8
:102EC000FEE70000FEB50024094F4FF4807501268F
:102ED0003819CDE900060123002278210295054822
:102EE000FDF770FE641CE4B21B2CF1D3FEBD0000A4
:102EF00000000020E80100200FB4054B10B503A925
:102F0000044A029800F050F810BC5DF814FB000071
:102F10000D3300087C0000200FB41CB50A46521E79
:102F2000CDE9000207A9054B6A46069800F03CF877
:102F3000009A002111701CBC5DF814FBEB320008F4
:102F40000FB4084B10B504A902AA039800F02CF89E
:102F5000044602A9002000F0D3F9204610BC5DF819
:102F600014FB0000013300080907090E002804DBE8
:102F700000F1E02080F80014704700F00F0000F12D
:102F8000E02080F8141D704702E008C8121F08C135
:102F9000002AFAD170477047002001E001C1121FDA
:102FA000002AFBD1704700002DE9FF4F8BB0884607
:102FB0000546002606E025280BD0DDE90D129047D6
:102FC0006D1C761C28780028F5D10FB03046BDE87E
:102FD000F08F0024A146A2460122AE4900E004433E
:102FE00015F8013F203B02FA03F00842F7D1287898
:102FF0002A2810D06FF02F022878A0F1300109297B
:1030000015D809EB890102EB410144F0020400EB01
:1030100001096D1CF0E758F8041B5FEA010903D5AC
:1030200044F40054C9F1000944F002046D1C2878EE
:103030002E2817D115F8010F44F004042A280ED0C9
:103040006FF02F022878A0F1300109290AD80AEB85
:103050008A0102EB410100EB010A6D1CF2E758F80E
:1030600004AB6D1C28786C280FD006DC4C2817D0D8
:1030700068280DD06A2814D104E0742810D07A286A
:103080000FD10DE044F400140AE044F4801401E090
:1030900044F440146978814202D104F580146D1C17
:1030A0006D1C2878692865D006DC00288DD063283F
:1030B00027D0642806D15DE06E2808D073282AD076
:1030C000752877D0DDE90D129047761CE0E0C4F357
:1030D0000250022809D003280DD0D8F80010042887
:1030E0000DD00E6008F10408D2E0D8F80010F217F5
:1030F000C1E90062F6E7D8F800100E80F2E70E7022
:10310000F0E718F8041B8DF8001000208DF801007E
:10311000EB46012003E058F804BB4FF0FF30610795
:103120004FF0000701D40AE07F1C57450DDA8742B3
:10313000FADB1BF807100029F6D106E07F1C874256
:10314000FCDB1BF807100029F8D1DDE90D23A9EB02
:1031500007008146214600F0B1F83044C61904E06A
:10316000DDE90D121BF8010B90477F1EF8D22146B6
:10317000484688E058F8040BC4F302514FF00A0B9C
:10318000032900D100B2042900D140B2002802DA9C
:1031900040422D2102E0210505D52B218DF8241078
:1031A000012104E006E0E10710D02021F6E708AF96
:1031B000089113E058F8040BC4F302514FF00A0BC6
:1031C000032900D180B2042900D1C0B20021EEE76A
:1031D0005946FDF738F8303107F8011D0028F7D1BE
:1031E000ADEB070000F1200B600702D524F480341A
:1031F00001E04FF0010ADA4502DDAAEB0B0000E026
:103200000020824600EB0B0108980144A9EB010065
:103210000A90E00306D4DDE90D2321460A9800F068
:103220004DF806444FF0000908E009A911F809001B
:10323000DDE90D12904709F10109761C08998945CD
:10324000F3DBE0030CD5DDE90D2321460A9800F0FD
:1032500035F8064404E0DDE90D1230209047761C75
:10326000BAF10001AAF1010AF5DC05E0DDE90D1271
:1032700017F8010B9047761CBBF10001ABF1010B75
:10328000F4DC0A982146DDE90D2300F005F8064438
:103290006D1C97E6092801002DE9F0410446002540
:1032A0001E461746880404D405E039462020B0475E
:1032B0006D1C641EF9D52846BDE8F0812DE9F0416A
:1032C000044600251E469046C80301D5302700E07D
:1032D0002027880404D505E041463846B0476D1CD8
:1032E000641EF9D52846BDE8F0814A68002A06D058
:1032F0000A68531C0B6010704868401E4860704795
:103300000A68531C0B6010707047000013B54FF42F
:103310007A73012269460248FEF7B6FC00981CBD8C
:103320008402002010B501210C48FDF77BFB012829
:1033300012D1FFF74AF80A480168491C016009A048
:10334000FFF7DAFD06490622BDE810404FF6FF738D
:10335000091D0648FEF798BC10BD000000000240A1
:10336000580000206B65793D25640A000C0300209D
:10337000FDF7FCFCFFF7FCF9FEF7B2FEFEF77AFE64
:10338000FEF736FFFEF7ECFEFEF76AFFFEF74CFF96
:10339000FEF782FFFEF704FFFFF731F8FFF715F89D
:1033A0000F4C40F2DC50206060600E48FEF774F86D
:1033B00014220D490D48FEF74FFCFEF78BFFD4E9B0
:1033C00000130122002000F055F807491422143997
:1033D0000748FEF741FC00F00DF8FFF719F8E7E7A2
:1033E000680000203C020020E8000020500300207C
:1033F000C802002070B5154C0026154D05206660EA
:10340000295C6268303902EB820201EB4201401C08
:1034100061600928F4DB0FA0FFF76EFDE878E66035
:10342000303820600F20E268295C02EB82023039DC
:1034300001EB4201401CE1601328F4DB09A0FFF717
:103440005BFD687B3038A06070BD0000B0000020DC
:10345000D40000200A706963682069733A202564EB
:103460000A0000007961772069733A2025640A0A0E
:10347000000000002DE9F04389B0994690460F46C0
:10348000232503466C468DF800502DA20421601CB4
:10349000FFF742FD50268DF804603B462AA2052125
:1034A000601DFFF739FD54248DF80940642326A2DE
:1034B00005210DF10A00FFF72FFD8DF8105021278F
:1034C00004AD8DF80E7043461DA20421681CFFF761
:1034D00023FD8DF814604B461BA20521681DFFF7E4
:1034E0001BFD8DF81940642317A205210DF11A0068
:1034F000FFF712FD8DF81E700F2269461448FEF783
:103500001DFC1920FDF776F90F2204A91048FEF7DB
:1035100015FC1920FDF76EF909220E490C48FEF73B
:103520000DFC1920FDF766F90A49092209310848FE
:10353000FEF704FC1920FDF75DF909B0BDE8F08342
:1035400025303364000000002530346400000000A2
:10355000C80200204400002000000000000000001D
:10356000002F000000000700070000147F147F14E4
:1035700000242A7F2A12006264081323003649556A
:10358000225000000503000000001C224100000042
:1035900041221C000014083E08140008083E0808D8
:1035A000000000A060000008080808080000606033
:1035B0000000002010080402003E5149453E000072
:1035C000427F4000004261514946002141454B3154
:1035D000001814127F10002745454539003C4A4920
:1035E0004930000171090503003649494936000692
:1035F0004949291E000036360000000056360000FA
:103600000008142241000014141414140000412274
:10361000140800020151090600324959513E007C4C
:103620001211127C007F49494936003E4141412236
:10363000007F4141221C007F49494941007F09091F
:103640000901003E4149497A007F0808087F0000CF
:10365000417F4100002040413F01007F081422418A
:10366000007F40404040007F020C027F007F040842
:10367000107F003E4141413E007F09090906003E9E
:103680004151215E007F09192946004649494931C7
:103690000001017F0101003F4040403F001F2040EA
:1036A000201F003F4038403F0063140814630007A8
:1036B0000870080700615149454300007F414100FF
:1036C00000552A552A55000041417F00000402019F
:1036D000020400404040404000000102040000207D
:1036E00054545478007F48444438003844444420BB
:1036F00000384444487F00385454541800087E0968
:1037000001020018A4A4A47C007F0804047800002F
:10371000447D4000004080847D00007F10284400EC
:103720000000417F4000007C04180478007C0804FD
:10373000047800384444443800FC24242418001839
:10374000242418FC007C0804040800485454542025
:1037500000043F444020003C4040207C001C2040AE
:10376000201C003C4030403C004428102844001CF1
:10377000A0A0A07C004464544C44141414141414E9
:103780000000000000000000000000000000000039
:10379000000000F8000000000000003330000000CE
:1037A00000100C06100C06000000000000000000D5
:1037B00040C07840C0784000043F04043F04040047
:1037C000007088FC08300000001820FF211E000057
:1037D000F008F000E018000000211C031E211E006C
:1037E00000F00888700000001E21232419272110F2
:1037F00010160E0000000000000000000000000095
:10380000000000E01804020000000007182040003B
:1038100000020418E000000000402018070000002B
:10382000404080F0804040000202010F010202008F
:10383000000000F0000000000101011F0101010073
:10384000000000000000000080B0700000000000D8
:103850000000000000000000000101010101010161
:1038600000000000000000000030300000000000F8
:1038700000000000806018040060180601000000CD
:1038800000E010080810E000000F102020100F00CA
:10389000001010F8000000000020203F2020000051
:1038A00000700808088870000030282422213000A9
:1038B00000300888884830000018202020110E00B1
:1038C0000000C02010F8000000070424243F24005A
:1038D00000F80888880808000019212020110E002F
:1038E00000E0108888180000000F112020110E0041
:1038F00000380808C83808000000003F0000000039
:103900000070880808887000001C222121221C00F9
:1039100000E010080810E0000000312222110F0022
:10392000000000C0C00000000000003030000000B7
:103930000000008000000000000080600000000027
:103940000000804020100800000102040810200040
:10395000404040404040400004040404040404008B
:103960000008102040800000002010080402010020
:10397000007048080808F000000000303601000020
:10398000C030C828E810E0000718272423140B00D3
:103990000000C038E0000000203C2302022738204D
:1039A00008F8888888700000203F202020110E0031
:1039B000C030080808083800071820202010080028
:1039C00008F808080810E000203F202020100F0011
:1039D00008F88888E8081000203F202023201800DD
:1039E00008F88888E8081000203F20000300000045
:1039F000C03008080838000007182020221E0200E6
:103A000008F808000008F808203F210101213F20A4
:103A1000000808F8080800000020203F20200000CF
:103A200000000808F8080800C08080807F000000BF
:103A300008F888C028180800203F200126382000F8
:103A400008F8080000000000203F2020202030005F
:103A500008F8F800F8F80800203F003F003F200079
:103A600008F830C00008F808203F200007183F0081
:103A7000E01008080810E0000F10202020100F00B0
:103A800008F808080808F000203F210101010000A3
:103A9000E01008080810E0000F18242438504F00E8
:103AA00008F8888888887000203F2000030C3020A8
:103AB00000708808080838000038202121221C00E6
:103AC000180808F8080818000000203F200000002F
:103AD00008F808000008F808001F202020201F0018
:103AE0000878880000C83808000007380E01000078
:103AF000F80800F80008F800033C0700073C030042
:103B0000081868808068180820302C03032C3020A7
:103B10000838C800C83808000000203F2000000016
:103B200010080808C838080020382621202018006E
:103B3000000000FE020202000000007F4040400042
:103B4000000C30C000000000000000010638C0007A
:103B500000020202FE000000004040407F00000022
:103B60000000040202020400000000000000000047
:103B70000000000000000000808080808080808045
:103B8000000202040000000000000000000000002D
:103B900000008080808000000019242222223F2023
:103BA00008F8008080000000003F112020110E0066
:103BB0000000008080800000000E112020201100F5
:103BC000000000808088F800000E112020103F20A7
:103BD0000000808080800000001F2222222213002B
:103BE000008080F0888888180020203F2020000076
:103BF0000000808080808000006B9494949360002B
:103C000008F8008080800000203F210000203F2035
:103C100000809898000000000020203F2020000035
:103C2000000000809898000000C08080807F000025
:103C300008F8000080808000203F24022D30200002
:103C4000000808F8000000000020203F20200000AD
:103C50008080808080808000203F20003F20003FC7
:103C60008080008080800000203F210000203F20D5
:103C70000000808080800000001F202020201F0086
:103C8000808000808000000080FFA12020110E00B5
:103C90000000008080808000000E112020A0FF80A6
:103CA000808080008080800020203F212000010053
:103CB00000008080808080000033242424241900A8
:103CC000008080E0808000000000001F20200000B5
:103CD0008080000000808000001F202020103F20F6
:103CE000808080000080808000010E300806010086
:103CF00080800080008080800F300C030C300F002B
:103D000000808000808080000020312E0E31200055
:103D1000808080000080808080818E701806010085
:103D200000808080808080000021302C22213000A3
:103D300000000000807C020200000000003F4040C4
:103D40000002027C800000000040403F00000000B4
:103D500000000000FF00000000000000FF00000065
:103D60000000E28282828282828282FE0000000063
:103D70000000000000000000000000000000000043
:103D800000003F40404040404040404040780000FC
:103D90000000000000000000000000000000000023
:103DA000003E22E2223E00FE92929292FE0000002D
:103DB0000000000000000000000000000000000003
:103DC000203F201F111100FF40230C14224140000E
:103DD00000000000000000000000000000000000E3
:103DE000003E22E23E100C242425262424140C003C
:103DF00000000000000000000000000000000000C3
:103E0000203F201F1222110D41817F010509310041
:103E100000000000000000000000000000000000A2
:103E20004262524AC6425262C200F80000FF0000DD
:103E30000000000000000000000000000000000082
:103E400040C444447F24242420000F40807F00008D
:103E50000000000000000000000000000000000062
:103E600080808888888888FF888888888880800003
:103E70000000000000000000000000000000000042
:103E800020201008040201FF010204081020200075
:103E90000000000000000000000000000000000022
:103EA000003E22E2223E00FE92929292FE0000002C
:103EB0000000000000000000000000000000000002
:103EC000203F201F111100FF40230C14224140000D
:103ED00000000000000000000000000000000000E2
:103EE000003E22E23E100C242425262424140C003B
:103EF00000000000000000000000000000000000C2
:103F0000203F201F1222110D41817F010509310040
:103F100000000000000000000000000000000000A1
:103F20004262524AC6425262C200F80000FF0000DC
:103F30000000000000000000000000000000000081
:103F400040C444447F24242420000F40807F00008C
:103F50000000000000000000000000000000000061
:103F6000829A9693FA5252807E121212F111100028
:103F70000000000000000000000000000000000041
:103F8000000100FE93929392929292FE0300000031
:103F90000000000000000000000000000000000021
:103FA0008060F8070004745455565454740400009B
:103FB0000000000000000000000000000000000001
:103FC0000000FF0003010545857D0505050103008F
:103FD00000000000000000000000000000000000E1
:103FE000000000FC4444444546444444447C0000F2
:103FF00000000000000000000000000000000000C1
:104000004020180700FC44444444444444FC00005D
:1040100000000000000000000000000000000000A0
:104020004044C4444444401010FF101010F00000FD
:104030000000000000000000000000000000000080
:10404000103C131014B840300E014080403F000077
:104050000000000000000000000000000000000060
:1040600000061016000610160000000000000000F8
:10407000010203040607080900000000010203040E
:10408000A04000080000002090000000882F0008D9
:10409000304100089000002088080000982F000898
:1040A000AE001040B081FFA1A6A83FC8D300D580C4
:1040B000D805D9F1DA12D8308D14AF00CDCCCCBCF4
:1040C00052499DB9000000000AD7A3BC52499DB9CE
:1040D0006F12833A000000000000000000000000A2
:1040E0000000000023303030505241442123303052
:1040F000315052414421000000000000AA07020094
:1041000001B4AA07020002B5000000000000000090
:10411000000000000000000000000000000000009F
:104120000100000010000000000000000024F40066
:040000050800018965
:00000001FF
