:020000040800F2
:10000000E80A002031020008D9220008A91F0008D0
:10001000E52100088D070008FD2A00080000000007
:10002000000000000000000000000000DD220008C9
:100030006508000800000000DB22000865230008B6
:100040004B0200084B0200084B0200084B0200085C
:100050004B0200084B0200084B0200084B0200084C
:100060004B0200084B0200084B0200084B0200083C
:100070004B0200084B0200084B0200084B0200082C
:10008000910700089D0700084B0200084B0200087A
:100090004B0200084B0200084B0200084B0200080C
:1000A0000D2400084B0200084B0200084B02000818
:1000B0004B0200084B0200084B0200084B020008EC
:1000C0004B0200084B0200084B0200084B020008DC
:1000D0004B020008CD2A0008D92A0008E52A0008AA
:1000E0004B0200084B0200084B0200084B020008BC
:1000F0004B0200084B0200084B0200084B020008AC
:100100004B0200084B0200084B0200084B0200089B
:100110004B0200084B0200084B0200084B0200088B
:100120004B020008A90700084B0200084B02000818
:100130004B0200084B0200084B0200084B0200086B
:100140004B0200084B0200084B0200084B0200085B
:100150004B020008B50700084B020008F12A00080E
:100160004B0200084B0200084B0200084B0200083B
:100170004B0200084B0200084B0200080000000080
:100180004B0200084B02000800F002F800F041F8B2
:100190000AA090E8000C82448344AAF10107DA45E2
:1001A00001D100F036F8AFF2090EBAE80F0013F0F3
:1001B000010F18BFFB1A43F001031847F02B000092
:1001C000102C0000103A24BF78C878C1FAD8520722
:1001D00024BF30C830C144BF04680C6070470000C1
:1001E0000023002400250026103A28BF78C1FBD840
:1001F000520728BF30C148BF0B607047642900F028
:10020000FD80002070471FB502F0B2FD1FBD10B584
:1002100010BD00F08BFA1146FFF7F5FF02F0AEFCBF
:1002200000F0A9FA03B4FFF7F2FF03BC02F07EFC72
:100230000948804709480047FEE7FEE7FEE7FEE77A
:10024000FEE7FEE7FEE7FEE7FEE7FEE704480549B6
:10025000054A064B70470000FD230008890100088D
:10026000E8040020E80A0020E8060020E806002054
:10027000704753EA020C00F069802DE9F04B4FF013
:100280000006002B1FBFB3FA83F503FA05F424FA26
:1002900005F65E4012BF1643B2FA82F502FA05F483
:1002A000C5F120051EBF22FA05FC44EA0C042035E6
:1002B00056EA044C4FEA144418BF641C4FF000087F
:1002C0004FF00009904271EB030C39D3002919BF9C
:1002D000B1FA81F701FA07F6B0FA80F700FA07F6EB
:1002E000C7F120071EBF20FA07FC46EA0C0620379C
:1002F000B6FBF4FCA7EB0507103F07F01F0BCBF193
:1003000020060CFA0BFB2CFA06F644BFB346002677
:10031000202FA4BF5E464FF0000B5BEA060C08BF1F
:100320004FF0010B19EB0B09ABFB027C48EB060805
:10033000C01B06FB02CC0BFB03CC71EB0C01C1E72D
:100340000B46024641464846BDE8F08B13B54FF0D8
:1003500000004FF00001AFF30080BDE81C40704783
:100360000FB4044910B503AA029800F0C9F910BCF3
:100370005DF814FB500000200FB41CB50C0007AA58
:10038000009001D02044401E074B7B4469460190F9
:10039000069800F094F9002C03D06946002000F084
:1003A000A1F91CBC5DF814FB6103000070B50446A4
:1003B00085690068C10601D5302600E02026C00707
:1003C00007D070BDD4E9012130469047206A401C17
:1003D00020626D1EF6D570BD70B504468569007843
:1003E000C00707D170BDD4E9012120209047206AC1
:1003F000401C20626D1EF6D570BD00002DE9F04155
:100400000646002410687529314616A510D0AFF3B2
:100410000080002802DA404213A507E031688A070D
:1004200001D512A502E0490704D511A5012401E078
:10043000AFF3008000210A2206F1240709E0B0FB97
:10044000F2FCB0FBF2F302FB1C003030785418468B
:10045000491C0028F3D123462A463046BDE8F04126
:1004600000F0CFB8000000002D0000002B000000BD
:10047000200000002DE9F05F894604464FF0000A95
:10048000DFF824B1FB44C0F820A02046E16888478B
:1004900000287DD0252806D0D4E901219047206A84
:1004A000401C2062F1E700255F462046E16888474E
:1004B0002028064607DB312E05D2B81910F8200C8B
:1004C00008B10543F1E7A80701D525F00405C4F8F4
:1004D0001CA00027C4F818A02A2E09D0304602F02C
:1004E0001EFB38B304EB8708303EC8F8186019E0EB
:1004F00059F8041B204604EB87029161E1688847A4
:10050000012F064618D1E069002820DA25F02005E1
:100510001DE0D8F8180000EB800006EB40003038F2
:10052000C8F818002046E1688847064602F0F7FA46
:100530000028EED1012F0AD02E2E08D12046E168E6
:1005400088477F1C0646022F45F02005C4DBA069C2
:10055000002803DA404245F00105A061E80701D018
:1005600025F01005A6B1A6F14100192802D82036C1
:1005700045F400654A463146204625604D46FFF762
:100580003DFE60B1012807D0ED1D25F0070000E019
:1005900007E000F1080978E705F1040975E730463E
:1005A0007AE7206ABDE8F09F122900004FF00002B0
:1005B00000B5134694469646203922BFA0E80C5059
:1005C000A0E80C50B1F12001BFF4F7AF090728BF34
:1005D000A0E80C5048BF0CC05DF804EB890028BFB0
:1005E00040F8042B08BF704748BF20F8022B11F0D9
:1005F000804F18BF00F8012B704770477047704755
:1006000070472DE9F0470D4699469246044600F1A1
:1006100024080168880604D5E06921F010012160F2
:1006200000E00120A84201DD471B00E00027A1698E
:100630007A1902EB0900081AA0612078C00602D4DA
:100640002046FFF7B3FE002608E0D4E901211AF89E
:1006500006009047206A401C761C20624E45F4DB61
:100660002078C0060AD52046FFF7A0FE06E0D4E9B0
:10067000012130209047206A401C2062381EA7F1DB
:100680000107F4DC07E0D4E9012118F805009047E0
:10069000206A401C2062281EA5F10105F3DC2046DB
:1006A000FFF79AFE2078000602D50220BDE8F08709
:1006B0000120FBE701694A1C02610878704700B518
:1006C0008FB0CDE901310021059105497944CDE98B
:1006D000031011466846FFF7CDFE0FB000BD0000C5
:1006E000E5FFFFFF0A6802F8010B0A607047D1E9D5
:1006F00000239A4202D2531C0B6010707047000016
:10070000074B70B50D467B44FFF7D9FF04462846DA
:1007100000F008F810B14FF0FF3070BD204670BDFA
:100720005B240000007B00F080007047754600F0FD
:1007300029F8AE4605006946534620F00700854675
:1007400018B020B5FFF782FDBDE820404FF000064D
:100750004FF000074FF000084FF0000B21F00701A9
:10076000AC46ACE8C009ACE8C009ACE8C009ACE8EC
:10077000C0098D4670470446AFF300802046FFF75E
:1007800051FD00000048704788040020FEE700008B
:10079000014800F0FBB8000008030020014800F009
:1007A000F5B8000068030020014800F0EFB8000031
:1007B000C8030020014800F0E9B800002804002028
:1007C00001681823CAB2103AB2FBF3F2054B6FF37B
:1007D0000901032A9B5CC36500D9091D8165084690
:1007E000704700007A2D000810B5014600208B6983
:1007F0008A6A4FF0C07453B1B3F5005F15D072B17F
:10080000012A0CD0022A0AD0032A09D104E01AB125
:10081000012A06D0022A03D1C96AC90100D50120E4
:1008200010BDC96AA142FAD010BD002AF7D0012A32
:10083000F2D0022AF3D0032AF3D010BD30B50468F9
:10084000256825F480252560046863608368402B53
:10085000036803D099600068C26030BD9A60006888
:10086000C16030BD704700002DE9F0410F4F104CC2
:10087000104E3868A8B9104DE968686801F06AFE42
:10088000216808442060A968286801F093FE316857
:100890000844306001F092FB326808A02168FFF73D
:1008A0005FFD38680128FDD0BDE8F08144000020DC
:1008B000480000204C0000206400002061696D5F4A
:1008C000616E676C653A2825642C25642900000058
:1008D00072B6FEE72DE9F0410446876D00F0D2FACA
:1008E000064694F835000025022806D08020606571
:1008F00084F834500120BDE8F0812068016821F0BF
:10090000160101602068416921F080014161206C7D
:1009100008B9A06C20B12068016821F008010160CD
:100920002068016821F0010101600CE000F0AAFAE2
:10093000801B052807D920206065032084F8350036
:1009400084F83450D7E720680068C007EED194F8E7
:100950005C103F208840B860012084F8350084F89E
:1009600034500020C7E790F83510022903D08021C9
:10097000416501207047052180F835100068016845
:1009800021F0010101600020704700002DE9F843CB
:1009900004464FF00009CDF8009063484FF416511B
:1009A000A56D0068B0FBF1F72E6894F85C10082084
:1009B00000FA01F131420FD021680A6852070BD5C5
:1009C0000A6822F004020A6094F85C108840A8606B
:1009D000606D40F00100606594F85C104FF0010814
:1009E00008FA01F0304208D021684969090604D5A7
:1009F000A860606D40F00200606594F85C1004200F
:100A00008840304208D021680968890704D5A86069
:100A1000606D40F00400606594F85C101020884020
:100A2000304218D021680968090714D5A8602068E9
:100A30000168490304D50068000308D5A16C07E0EC
:100A40000168C90503D4016821F008010160216C27
:100A500009B12046884794F85C1020208840304235
:100A600031D021680968C9062DD5A86094F83500F1
:100A700005282068016806D0490347D500680003AF
:100A80001DD4616C1CE021F01601016020684169F1
:100A900021F080014161206C08B9A06C20B1206870
:100AA000016821F00801016094F85C103F20884043
:100AB000A86084F8358084F83490216D1FE0E16BE4
:100AC00009B120468847606D00282BD0606DC007B3
:100AD00014D0052084F835002068016821F0010158
:100AE00001600098401C0090B84203D8206800685C
:100AF000C007F6D184F8358084F83490E16C002981
:100B000010D001B02046BDE8F04308470168C90590
:100B1000D5D4016821F01001016084F8358084F893
:100B20003490CCE7BDE8F883600000202DE9F04167
:100B3000044600F0A7F906465CB1022084F83500AF
:100B4000002584F834502068016821F0010101601B
:100B50000DE00120BDE8F08100F094F9801B05282C
:100B600005D920206065032084F83500F2E720686D
:100B70000068C007F0D12268116820480140D4E91C
:100B800001031843D4E90336334318436369184318
:100B9000A3691843E3691843236A18430843616A49
:100BA000042903D1D4E90B131943084310602068CA
:100BB0004069666A20F0070130460E430127042889
:100BC0000CD1A06A0643E06A40B12046FFF70CFE54
:100BD00020B14020606584F83570BAE7206846612E
:100BE0002046FFF7EDFD94F85C203F2191408160A5
:100BF000656584F835700020ACE700003F8010F098
:100C00002DE9F0410446866D90F834000025012856
:100C10000DD0012084F8340094F835700020012FA5
:100C200007D084F8340002252846BDE8F081022070
:100C3000FBE7022784F8357060652046FFF7FEFD6C
:100C400094F85C103F208840B0602068016841F053
:100C500016010160206C20B12068016841F0080194
:100C600001602068016841F001010160DCE70000DB
:100C700070B5044600F006F90546601C02D0044831
:100C80000078044400F0FEF8401BA042FAD370BD87
:100C9000540000202DE9F84FDFF8BCA10022012507
:100CA0000AF1040B03264FF00F090BF1040E00BFED
:100CB0000B6805FA02F42340A34270D10F7907F0C4
:100CC0000307012F01D0022F16D187684FEA42088F
:100CD00006FA08FC27EA0C07D1F80CC00CFA08FC4D
:100CE0004CEA070CC0F808C04768A7430C79C4F366
:100CF000001494403C4344600C79E443A4070AD0B8
:100D0000C4684FEA420C06FA0CF7BC438F6807FA36
:100D10000CF72743C7600C7904F00304022C12D1AE
:100D2000D40800EB840CDCF820405707FF0E09FACA
:100D300007F824EA0804D1F8108008FA07F848EA0E
:100D40000408CCF8208004684FEA420C06FA0CF73D
:100D5000BC430F7907F0030707FA0CF72743076036
:100D60004C6814F4403F70D03C4C276847F48047EF
:100D70002760246822F0030704F480440094384C70
:100D800007EB040CDCF8084897074FEA177809FAD4
:100D900008F7BC43334FB84202D1002724E054E0A7
:100DA000314FB84201D101271EE0304FB84201D186
:100DB000022719E02E4FB84201D1032714E02D4F2E
:100DC000B84201D104270FE02B4FB84201D10527CB
:100DD0000AE02A4FB84201D1062705E0284FB84261
:100DE00001D1072700E0082707FA08F72743CCF8C6
:100DF0000878DAF800405746D1F804C09C435FEA0F
:100E0000CC3C00D51C433C60DBF800405F46D1F889
:100E100004C09C435FEA8C3C00D51C433C60DEF878
:100E200000407746D1F804C09C435FEACC2C00D543
:100E30001C433C60084F0C373C68D1F804C09C430D
:100E40005FEA8C2C00D51C433C60521C102AFFF436
:100E50002FAFBDE8F88F0000003C0140443802404D
:100E6000003001400000024000040240000802403F
:100E7000000C024000100240001402400018024022
:100E8000001C0240014880687047000054000020A8
:100E90000248816802781144816070475400002044
:100EA0000B4810B5016841F400710160016841F41C
:100EB00080610160016841F480710160032000F0ED
:100EC0006FF80F2000F006F800F024F8002010BDA5
:100ED000003C024070B50D4D04464FF47A712878FD
:100EE000B1FBF0F00A490968B1FBF0F000F00AFB31
:100EF00048B9102C07D200222146501E00F030F8CD
:100F000000206C6070BD012070BD00005400002006
:100F1000600000200A4808B5016841F48041016082
:100F2000006800F4804000900548001F016841F00F
:100F300080510160006800F08050009008BD000002
:100F400044380240002809DB00F01F0201219140D3
:100F50004009800000F1E020C0F800117047000057
:100F6000F0B40E4B1B680C46C3F30223C3F1070514
:100F7000042D00D90425191D072901D2002300E002
:100F8000DB1E012606FA05F1491E214099409E40CC
:100F9000761E16403143F0BC01F0B1BD0CED00E00F
:100FA000064900F0070208684FF6FF03184040EAC0
:100FB0000220034A10430860704700000CED00E077
:100FC0000000FA052DE9F0470E46050065D0DFF870
:100FD0001481D8F80000F7B200F00700B04207D241
:100FE00088F80070D8F8000000F00700B04254D133
:100FF00028683D4C810712D5400703D5206840F48E
:10100000E05020602878000703D5206840F4604055
:1010100020602068A96820F0F0000843206028784C
:10102000C0072DD0304968680839012812D002283D
:1010300013D0032811D00968890700292DDA216807
:1010400021F0030101432160FFF71CFF814641F2BB
:10105000883A0EE009688903EFE709688901ECE73F
:10106000FFF710FFA0EB0901514502D90320BDE8AD
:10107000F0872068696800F00C00B0EB810FEFD1B9
:10108000D8F80010404601F00701B14207D90770B7
:10109000006800F00700B04201D00120E7E728789F
:1010A000400705D52068E96820F4E0500843206037
:1010B0002878000706D52068296920F4604040EAB6
:1010C000C100206000F038F82168084AC1F303111C
:1010D000515CC8400649086006480068FFF7FAFE00
:1010E0000020C4E7003C024008380240822D00087E
:1010F0006000002058000020044805490068096885
:10110000044AC1F38221515CC8407047600000204E
:1011100008380240922D0008044805490068096813
:10112000044AC1F34231515CC8407047600000205E
:1011300008380240922D0008154810B5006810F0DC
:101140000C02144813D04110042A0FD0082A0ED1E3
:101150000F4C241F2268236802F03F025B0207D570
:101160002068C0F38810A0FB010106E0084610BD0E
:101170002168C1F38811A1FB00010023FFF779F872
:101180002168C1F30141491C4900B0FBF1F010BDD9
:10119000083802400024F4002DE9F84F04006ED016
:1011A0002078DFF84C93C007A9F104054AD009F173
:1011B00004000168C1F38101012908D00068C0F36F
:1011C000810002280AD1D9F80000400206D528681B
:1011D000800337D560680028E1D033E06068B0F55F
:1011E000803F10D0B0F5A02F286810D020F48030B8
:1011F0002860286820F4802028606068A8B1FFF784
:1012000041FE06460DE0286840F48030F4E740F4E3
:1012100080202860F7E700BFFFF734FE801B6428BA
:1012200073D828688003F7D50CE0FFF72BFE06463D
:1012300005E000BFFFF726FE801B6428F0D8286871
:101240008003F7D42078DFF8AC8280074FF0000AE3
:101250003ED5A748001D016811F00C0F08D00068AA
:10126000C0F3810002280BD1D9F80000400207D456
:101270002868800716D5E068012800D112E033E124
:10128000E068B8B10120C8F80000FFF7FBFD064692
:1012900005E000BFFFF7F6FD801B0228C0D82868D4
:1012A0008007F7D52868216920F0F80040EAC100DE
:1012B00028600DE0C8F800A0FFF7E4FD064604E052
:1012C000FFF7E0FD801B02281FD828688007F7D4AD
:1012D0002078000722D5864F87486169703771B141
:1012E00001210160FFF7CEFD064604E0FFF7CAFDCD
:1012F000801B022809D838688007F7D50EE0C0F8AF
:1013000000A0FFF7BFFD064605E082E0FFF7BAFD4B
:10131000801B02287DD838688007F7D420784007E2
:1013200068D5DFF8CCB100270BF13C0BDBF80000EF
:10133000C0000BD4DBF8001041F08051CBF8001056
:10134000DBF80000012700F0805000906B4E306801
:10135000C00510D4306840F480703060FFF792FD13
:10136000009005E0FFF78EFD0099401A022850D842
:101370003068C005F6D55E4EA0686C3601280FD0E7
:101380000528306810D020F001003060306820F06F
:1013900004003060A068B8B1FFF774FD00900FE062
:1013A000306840F00100F4E740F004003060F7E7F7
:1013B000FFF768FD0099411A41F28830814266D8F2
:1013C00030688007F4D50EE0FFF75CFD009007E081
:1013D000FFF758FD0099411A41F28830814256D8F2
:1013E00030688007F4D42FB1DBF8001021F0805171
:1013F000CBF80010A069C8B33D49091D0968C1F3C5
:10140000810102294AD00228504607D0C8F860005E
:1014100000E03CE0FFF736FD04463BE04746C8F8F5
:101420006000FFF72FFD064605E000BFFFF72AFD2D
:10143000801B02282BD828688001F7D4D4E9070143
:101440000843A16A2E4A490802EB0141626A41EA57
:101450008211084394F82C1040EA0161C9F8001089
:1014600001203866FFF70EFD044606E03EE000BFAF
:10147000FFF708FD001B022809D828688001F7D56E
:1014800034E000BFFFF7FEFC001B022802D9032056
:10149000BDE8F88F28688001F4D427E00128F7D050
:1014A000D9F80000E26900F4800191421CD1226A5F
:1014B00000F03F01914217D147F6C071626A0140C6
:1014C000B1EB821F10D1A26A4FF0FF3300F440311C
:1014D00003EB5202B1EB024F06D194F82C1000F04E
:1014E0007060B0EB016F01D00120D1E70020CFE7A1
:1014F0000438024000004742800E4742007000401E
:101500000000FFFF10B5401EB0F1807F01D3012025
:1015100010BD4FF0E02460610F21601701F0EFFA79
:101520000020A06107202061002010BD7047704797
:1015300010B5040003D094F83D0010B107E001207D
:1015400010BD002084F83C00204600F01FF8022067
:1015500084F83D00211D206800F062FF012084F81E
:10156000460084F83E0084F83F0084F8400084F888
:10157000410084F8420084F8430084F8440084F871
:10158000450084F83D00002010BD000008B500684B
:101590000B49884212D10B48016841F48031016047
:1015A0000068002200F48030009011461820FFF7F8
:1015B000D7FCBDE808401820FFF7C4BC08BD0000F8
:1015C000004001404438024090F83D10012901D00C
:1015D00001207047022180F83D100168CA6842F07E
:1015E0000102CA6000681149884214D0B0F1804FEE
:1015F00011D00F4988420ED00E4988420BD00E49B7
:10160000884208D00D49884205D00D49884202D051
:101610000C49884204D1816801F00701062903D0F2
:10162000016841F0010101600020704700000140A5
:101630000004004000080040000C0040000401408D
:10164000004001400018004070B5044690F83C008E
:101650000025012817D0012684F83C60022084F878
:101660003D002068826822F0770222F47F42826087
:101670000868502838D00DDC20284FD005DC90B306
:10168000102811D14AE0022070BD302846D04028F1
:101690000AD13BE060282FD070280DD0B0F5805FD4
:1016A00003D0B0F5005F12D0012584F83D60002022
:1016B00084F83C00284670BDCB68D1E90121206840
:1016C00000F012FF2068816841F0770109E0CB68E3
:1016D000D1E90121206800F007FF2068816841F40A
:1016E00080418160E1E719E0CA684968206800F03C
:1016F0000DFF5021206806E0CA684968206800F0A4
:1017000016FF6021206800F0F9FECEE7CA6849683C
:10171000206800F0FBFE40212068F4E722680146C3
:101720001046F0E7704770B50446006801694FF055
:101730000005C943890715D4C168C943890711D475
:10174000E91E01610120207720688069800720461A
:1017500002D0FFF7E7FF04E000F098F8204600F021
:1017600096F8257720680169C943490717D4C168ED
:10177000C943490713D46FF00401016102202077A7
:101780002068806910F4407F204602D0FFF7CAFF2E
:1017900004E000F07BF8204600F079F82577206817
:1017A0000169C943090716D4C168C943090712D49E
:1017B0006FF008010161042020772068C06980076C
:1017C000204602D0FFF7AEFF04E000F05FF82046AD
:1017D00000F05DF8257720680169C943C90617D470
:1017E000C168C943C90613D46FF010010161082014
:1017F00020772068C06910F4407F204602D0FFF7B0
:1018000091FF04E000F042F8204600F040F8257710
:1018100020680169C943C90708D1C168C943C9071C
:1018200004D1891E0161204600F032F82068016968
:10183000C943090609D4C168C943090605D46FF034
:10184000800101612046FFF771FE20680169C943EC
:10185000490609D4C168C943490605D46FF040015F
:101860000161204600F015F820680169C943890626
:101870000BD4C168C943890607D46FF02001016108
:101880002046BDE87040FFF752BE70BD70477047FC
:101890007047704770477047F8B50168044608689C
:1018A000CA684B6910F00F0F4FF000055AD003F0D3
:1018B000010602F49077374365D0C10705D0D10502
:1018C00003D5216C41F001012164410705D5D907F9
:1018D00003D0216C41F002012164810705D5D907AD
:1018E00003D0216C41F004012164010707D502F007
:1018F0002001314303D0216C41F008012164216CA7
:1019000000293BD0800604D5900602D5204600F081
:1019100057FF20684069216CC0F3801001F0080176
:10192000014320462BD000F016FF20684069400696
:1019300021D52068143050E8001F21F0400140E814
:101940000012002AF5D1A06BA8B16C490165A06B0B
:10195000FFF709F8002811D0A06B016D01B0BDE8B8
:10196000F040084783060ED593060CD52046BDE807
:10197000F84000F025BF2046FFF78DFFF8BDFFF7C8
:101980008AFF2564F8BD266B2023012E79D1C60677
:1019900077D5D60675D5086848680090486940062E
:1019A00040D5A16B086840680004000CEAD0A28D05
:1019B0008242E7D9E085C869B0F5807F2DD02068E4
:1019C0000C3050E8001F21F4807140E80012002A1A
:1019D000F5D12068143050E8001F21F0010140E8E3
:1019E0000012002AF5D12068143050E8001F21F0C1
:1019F000400140E80012002AF5D184F83E3025630A
:101A000020680C3050E8001F21F0100140E800125F
:101A1000002AF5D1A06BFEF75DFFA08DE18D401A85
:101A200081B229E0A08DE18D401A81B2E08D0028BD
:101A3000A8D00029A6D020680C3050E8002F22F44E
:101A4000907240E80026002EF5D12068143050E84E
:101A5000002F22F0010240E80026002EF5D184F884
:101A60003E30256320680C3050E8002F22F0100231
:101A700040E80023002BF5D12046FFF70BFFF8BD0F
:101A8000FFE705062BD5150629D594F83D0021283A
:101A9000F5D1A068B0F5805F01D12069B0B1206AAE
:101AA000411C2162216800784860E08C401E0004DF
:101AB000000CE084E3D12068C16821F08001C1609E
:101AC0002068C16841F04001C160D8E7206A008801
:101AD000C0F308004860206A801C2062E5E74006E9
:101AE000CDD55006CBD5CA68204622F04002CA6048
:101AF00084F83D3000F056FAC1E7000015260008D2
:101B000070B5040004D094F83D00002510B106E043
:101B1000012070BD84F83C50204600F023F82420BA
:101B200084F83D002068C16821F40051C16020465E
:101B300000F0A6FE2068016921F49041016120684F
:101B4000416921F02A0141612068C16841F40051D6
:101B5000C1602564202084F83D0084F83E00002008
:101B600070BD00002DE9F04F87B00446142168468F
:101B7000FEF71CFD7E487D4AD4F800C07C4914382D
:101B8000022303260727DFF8ECB1002594451DD179
:101B90000A6842F010020A60096801F0100105911C
:101BA000016841F0010101600068694600F0010030
:101BB000059070028DE8E9005846FFF76BF80022A7
:101BC00002212520FFF7CCF9252057E0684ADFF8ED
:101BD000A881121F4FF0400A4FF48069C44552D1CA
:101BE000116841F400311160116801F40031059170
:101BF000016841F00101016000680DF1080800F082
:101C0000010005900C20CDE90003012088E8C10007
:101C100069465846FFF73EF8594E58484FF000685D
:101C20003060C6E90185C6E903597561B561F561A2
:101C300035624F4630467562FEF778FF08B1FEF711
:101C400047FEA663B4634E4E4C4860361830C6E972
:101C500003577561B561F5613562756286E8010506
:101C60003046FEF763FF08B1FEF732FE66630022DE
:101C700001212620B463FFF773F92620FFF762F9EC
:101C800007B0BDE8F08FDFF8FC80C4451ED11168B5
:101C900041F480211160116801F4802105910168EF
:101CA00041F0020101600068694600F00200059001
:101CB0004FF440608DE8E9003348FEF7EBFF002267
:101CC00011462720FFF74CF92720D7E72F4A9445E4
:101CD000D6D10A6842F020020A60096801F02001AA
:101CE0000591016841F0040101600068694600F057
:101CF00004000590C0208DE8690008200490244865
:101D0000FEF7C8FF1E4E2348C0364FF020683060F3
:101D1000C6E90185C6E903597561B561F5613562AA
:101D20004F4630467562FEF701FF08B1FEF7D0FD61
:101D3000A663B463184E1748C6E903577561B561C9
:101D4000F56135627830756286E801053046FEF748
:101D5000EDFE08B1FEF7BCFD6663002201214720BD
:101D6000B463FFF7FDF8472088E70000001001404A
:101D700044380240000002400044004088600240B5
:101D80000803002000480040000402400014014005
:101D900000080240286402402804002090F83E30E9
:101DA000202B0ED159B152B190F83C30012B08D004
:101DB000012380F83C300023036300F0E7BD0120DD
:101DC00070470220704790F83E30202B0ED159B159
:101DD00052B190F83C30012B08D0012380F83C3000
:101DE0000023036300F01ABE0120704702207047F1
:101DF00010B500680F49884215D10F4800210F4CDB
:101E0000007A0F4A0B2802D00A2803D001E00123F0
:101E10002360106021600BA01168FEF7A1FA0CA0EE
:101E20002168FEF79DFABDE81040092202490B48DF
:101E3000FFF7C9BF00480040A70100204400002070
:101E4000400000207461736B3D25640A00000000AF
:101E5000696673746F703D25640A0000800200207B
:101E6000704700002DE9F843044690F83D001F46F6
:101E700016460D4620284CD1C5B1BEB194F83C00A1
:101E8000012846D0012084F83C004FF00008C4F837
:101E90004080212084F83D00FEF7F4FFA6848146AF
:101EA000E684A068B0F5805F03D004E00120BDE8BF
:101EB000F883206928B12E465FF0000584F83C8045
:101EC0000EE00026FAE78021204600F0C2FDA0B90E
:101ED000AEB116F8010B21684860E08C401EE0842A
:101EE000E08C4B464FF0000200970028EBD14FF0FA
:101EF0004001204600F0ADFD30B10320D7E735F8B2
:101F0000020BC0F30800E6E7202084F83D00002023
:101F1000CDE70220CBE7000070B5044690F83D0005
:101F2000202836D191B38AB394F83C00012830D0F0
:101F3000012084F83C002162A284E284002525640B
:101F4000212084F83D00636B1348D863636B13480A
:101F50001864636B1248D864606B13460565266885
:101F6000606B321DFEF74CFE21686FF04000086088
:101F700084F83C502068143050E8001F41F0800184
:101F800040E80012002AF5D1002070BDFFE70120D3
:101F9000FBE70220F9E700000B2700084D270008A7
:101FA0002526000870477047FEE7020ECA70020C33
:101FB0008A70020A4A700870704700000C4940F2AB
:101FC00014534FF4E1600A689A4201DC0B6002E0AE
:101FD000824200DB086007494FF496630A689A4220
:101FE00001DC0B6070478242FCDB08607047000038
:101FF000480000204C000020194808B5016841F451
:1020000000110160016801F400110091016841F4C0
:10201000800101600068002200F4800000901146F9
:102020001020FEF79DFF1020FEF78CFF00221146C6
:102030001120FEF795FF1120FEF784FF00221146C4
:102040003920FEF78DFF3920FEF77CFF0022114674
:102050004520FEF785FFBDE808404520FEF772BF2A
:1020600030380240114808B5016841F08001016034
:10207000016801F080010091016841F001010160F7
:10208000016801F001010091016841F00201016065
:10209000016801F002010091016841F00401016052
:1020A000006800F00400009008BD000030380240D5
:1020B0001FB5002111480091019102910E4A039130
:1020C000026044F29F12C0E9012140F2F312C0E91C
:1020D00003218161FFF72CFA08B1FEF7F9FB4FF4F9
:1020E0008050009069460548FFF7AEFA002801D0FD
:1020F000FEF7EEFB1FBD000000400140B0010020D4
:102100000C4810B50A4901604FF4E13141600021EB
:1021100081600C22C160C0E904128161C161FFF7D6
:10212000EFFC002803D0BDE81040FEF7D1BB10BD86
:1021300000100140F80100200C4810B50A49016068
:102140004FF416514160002181600C22C160C0E94A
:1021500004128161C161FFF7D3FC002803D0BDE800
:102160001040FEF7B5BB10BD004400403C0200200B
:102170000C4810B50A4901604FF4E131416000217B
:1021800081600C22C160C0E904128161C161FFF766
:10219000B7FC002803D0BDE81040FEF799BB10BD86
:1021A00000480040800200200C4810B50A49016038
:1021B0000B494160002181600C22C160C0E904121A
:1021C0008161C161FFF79CFC002803D0BDE810408D
:1021D000FEF77EBB10BD000000140140C4020020C9
:1021E000B0710B00FEE7000070B5114C124D206875
:1021F0002061606860610F4801682160416861602A
:102200008168A160C168E1600069286000F030F871
:10221000D4E9002109A0FEF7A3F8D4E902210BA01C
:10222000FEF79EF82968BDE870400DA0FEF798B84B
:1022300064000020A80000204400002041494D3ADD
:102240002825642C256420290000000043555252A3
:10225000454E543A2825642C2564202900000000AE
:10226000696673746F703D2564200A0A00000000DF
:1022700010484FF41B720168914201DA002901DC19
:10228000016901608168914201DA002901DC8169FC
:10229000816041684FF4F072914201DA002901DC5B
:1022A00041694160C168914201DA002901DCC169DC
:1022B000C160704764000020064810B504490068FA
:1022C000FFF773FEBDE810400421014800F030BC68
:1022D0002800002040000020FEE770477047000003
:1022E00010B519A186B0D1E90001CDE90401009033
:1022F000BDF81400ADF8040015484FF6FF742346EE
:1023000000880822010A8DF806108DF8070069463A
:102310001048FFF7A7FD10A12346D1E90001CDE940
:1023200004010290BDF81400ADF80C000C4808221E
:102330000088010A8DF80E108DF80F0002A90548DB
:10234000FFF790FD06B010BDA55A058200200000E1
:102350004800002080020020A55A058200300000BD
:102360004C000020FEF794BD30B593B03021684694
:10237000FEF71CF914210CA8FEF718F91D480025DA
:10238000016841F080510160006800F080501190B8
:102390001948016841F4804101600068022400F49A
:1023A0008040119001200390102004900094069426
:1023B0000820CDE90750A820CDE9090404200B909E
:1023C0006846FEF7E9FE08B172B6FEE70CA90F20D9
:1023D00081E831004FF4A0500F904FF480501090DE
:1023E00005210CA8FEF7EEFD002801D072B6FEE72D
:1023F00013B030BD40380240007000400248016810
:1024000041F470010160704788ED00E010B50348A9
:10241000FFF789F9BDE81040FEF726BAB0010020A9
:10242000F0B50268254C264D264E274F274B4FF01E
:10243000804CA04209D0604507D0A84205D0B042E8
:1024400003D0B84201D0984204D122F0700E4A68FD
:1024500042EA0E02A0421BD0604519D0A84217D014
:10246000B04215D0B84213D0984211D0184DA842AE
:102470000ED0184DA8420BD0174DA84208D0174DCA
:10248000A84205D0164DA84202D0164DA84203D14D
:1024900022F44075CA682A434D6922F080022A431B
:1024A00002608A68C2620A688262A04201D09842D1
:1024B00001D10969016301214161F0BD00000140C2
:1024C0000004004000080040000C004000040140EF
:1024D0000040014000440140004801400018004015
:1024E000001C00400020004010B5846842EA03222E
:1024F00024F47F440A432243826010BD826822F0A4
:1025000070020A4342F007018160704710B5036A08
:10251000046A24F001040462846924F0F00444EAAB
:10252000021423F00A020A438461026210BD10B54E
:10253000036A23F0100303628369046A23F470437F
:1025400043EA023224F0A00343EA011182610162EE
:1025500010BD0000421A164940F26C73486A1044DC
:102560004862984202DC5B42984200DA184600EE6C
:10257000102A4862D1ED000AB8EEC00A91ED011AA6
:1025800060EE800A00EE100A086AB8EEC00A101A5F
:1025900041EE000A00EE100A91ED021A0A62B8EE4E
:1025A000C00A41EE000ABDEEE00A10EE100A7047C4
:1025B00000000020421A16494FF4C863C86910444D
:1025C000C861984202DC5B42984200DA184600EE8D
:1025D000102AC861D1ED030AB8EEC00A91ED041AC1
:1025E00060EE800A00EE100A8869B8EEC00A101A80
:1025F00041EE000A00EE100A91ED051A8A61B8EE6C
:10260000C00A41EE000ABDEEE00A10EE100A704763
:102610000000002010B5806B0021C185C184FFF748
:102620003AF910BD70B5846B2068406994F83D108C
:10263000C0F3C0100025212904D118B1E58420463B
:1026400000F0B0F82068406994F83E10C0F38010A4
:10265000222904D118B1E585204600F07CF8206CD1
:1026600040F0100020642046FFF715F970BD10B54A
:102670000146806B09680968C9052FD40021C1850E
:1026800001680C3151E8002F22F4807241E80023E8
:10269000002BF5D10168143151E8002F22F001021E
:1026A00041E80023002BF5D10168143151E8002FD7
:1026B00022F0400241E80023002BF5D1202180F8D0
:1026C0003E10016B012909D101680C3151E8002F3E
:1026D00022F0100241E80023002BF5D1016B012903
:1026E00002D0FFF785FB10BD818DFFF7D3F810BD39
:1026F00010B5806B016B012902D0FFF7B1FB10BD53
:10270000818D4908FFF7C6F810BD10B50146806BF2
:1027100009680968C90516D40021C184016814310B
:1027200051E8002F22F0800241E80023002BF5D170
:1027300001680C3151E8002F42F0400241E80023CB
:10274000002BF5D110BDFFF72DFC10BD10B5806B2F
:10275000FFF729FC10BD01680C3151E8002F22F46D
:10276000907241E80023002BF5D10168143151E843
:10277000002F22F0010241E80023002BF5D1016B6C
:10278000012909D101680C3151E8002F22F0100213
:1027900041E80023002BF5D1202180F83E100021D4
:1027A0000163704701680C3151E8002F22F0C0022C
:1027B00041E80023002BF5D1202180F83D1070471F
:1027C00008B590F83E10222901D0022008BD826889
:1027D0004FF480539A4201D1016921B1816A9A4232
:1027E0001BD04AB10AE00268816A5268C2F308024B
:1027F0000A80816A891C08E0026972B10268526825
:1028000002F07F020A70816A491C8162C18D491EF3
:102810000904090CC18503D019E002685268F1E788
:102820000168CA6822F02002CA600168CA6822F4FE
:102830008072CA6001684A6922F001024A6120215F
:1028400080F83E10016B012903D0FFF7D1FA002078
:1028500008BD0021016301680C3151E8002F22F00E
:10286000100241E80023002BF5D101680A68D20666
:1028700002D50A6849680091818DFFF70BF8E6E7F9
:1028800070B5044600680169E26821F440511143C3
:1028900001612169A068E269084361691143084345
:1028A0002168CA6849F20C639A430243CA602068EF
:1028B0004169A26921F440711143416131492068A5
:1028C000884202D03049884202D1FEF725FC01E05F
:1028D000FEF712FCE2690023192164253226B2F5C5
:1028E000004F626828D0A0FB0101930F9200FDF712
:1028F000C0FC0146B0FBF5F06FF01802504301EB4D
:10290000800006EB0010B0FBF5F000F0F002B1FB28
:10291000F5F002EB0012B1FBF5F06FF0180358432D
:1029200001EB800006EB0010B0FBF5F000F00F00AB
:1029300021681044886070BDA0FB010192185B41C2
:10294000FDF797FC0146B0FBF5F00201B1FBF5F095
:102950006FF01803584301EB800006EBC000B0FB9A
:10296000F5F000F0F80002EB4002B1FBF5F058433F
:1029700001EB800006EBC000B0FBF5F000F00700B3
:10298000D6E70000001001400014014038B5816214
:1029900082850025134604460564222084F83E0003
:1029A000A26B1B48D063A26B1A481064A26B1A4832
:1029B000D064A06B0A4605652168A06B091DFEF76F
:1029C0001FF9206801684068009084F83C50206836
:1029D0000C3050E8001F41F4807140E80012002ADA
:1029E000F5D12068143050E8001F41F0010140E8A3
:1029F0000012002AF5D12068143050E8001F41F081
:102A0000400140E80012002AF5D1002038BD000046
:102A10006F260008F12600082526000881628285BD
:102A2000C28500210164222280F83E2080F83C10FB
:102A30000168CA6842F48072CA6001684A6942F05B
:102A400001024A610068C16841F02001C1600020B4
:102A500070472DE9F041984617460E460446069DFC
:102A600027E0681C25D02DB1FEF70CFAA0EB08007A
:102A7000A8421ED920680C3050E8001F21F4D07104
:102A800040E80012002AF5D12068143050E8001FF9
:102A900021F0010140E80012002AF5D1202084F83D
:102AA0003D0084F83E00002084F83C000320BDE88F
:102AB000F0812068006836EA000004D00020B842A7
:102AC000CFD00020F3E70120F9E700000148FEF72E
:102AD000E3BE0000F80100200148FEF7DDBE000063
:102AE0003C0200200148FEF7D7BE00008002002013
:102AF0000148FEF7D1BE0000C4020020FEE709072E
:102B0000090E002804DB00F1E02080F80014704773
:102B100000F00F0000F1E02080F8141D70473038FD
:102B20000A2801D20120704700207047704700003A
:102B300010B50B4C22681368DB435B06FBD458B11D
:102B40008AB201460648FFF7E7F920680168C943E1
:102B50004906FBD4002010BD4FF0FF3010BD00002F
:102B6000C402002013B54FF47A730122694602486B
:102B7000FFF778F900981CBDF8010020FEF790F9E6
:102B8000FFF7F2FBFFF76EFAFFF736FAFFF7B8FA36
:102B9000FFF7D2FAFFF708FBFFF7EAFAFFF788FA28
:102BA00014A0FDF7DDFB092214491548FFF70BF9C6
:102BB000144C40F2DC50206060601348FEF704FDC6
:102BC0000E491422FF391148FFF7E8F8FFF70CFB14
:102BD000FFF772FBD4E900130122002000F056F841
:102BE00014220B490B48FFF7D9F800F015F8FFF74E
:102BF00077FBE5E77465737400000000A70100200F
:102C00008002002048000020B0010020C402002003
:102C1000940000203C02002030B414480024144AE0
:102C200005214460535C4568303B05EB850503EBAB
:102C30004503491C43600929F4DBD178C46030396D
:102C40000F230160D15CC468303904EB840401EBCC
:102C500044015B1CC160132BF4DB517B3039816074
:102C6000C268416830BC03A0FDF77ABB8400002035
:102C700094000020637572656E745F616E676C65A9
:102C80003A2825642C2564290A0000002DE9F04328
:102C900089B0994690460F46232503466C468DF829
:102CA00000502DA20421601CFDF766FB50268DF814
:102CB00004603B462AA20521601DFDF75DFB5424FC
:102CC0008DF80940642326A205210DF10A00FDF7C5
:102CD00053FB8DF81050212704AD8DF80E7043463C
:102CE0001DA20421681CFDF747FB8DF814604B46BC
:102CF0001BA20521681DFDF73FFB8DF819406423D9
:102D000017A205210DF11A00FDF736FB8DF81E7094
:102D10000F2269461448FFF7FFF82320FDF7A8FFAC
:102D20000F2204A91048FFF7F7F82320FDF7A0FFB2
:102D300009220E490C48FFF7EFF81920FDF798FF1C
:102D40000A49092209310848FFF7E6F81920FDF77A
:102D50008FFF09B0BDE8F083253033640000000028
:102D600025303464000000003C0200202C000020CC
:102D70004FF04070E1EE100A704700061016000692
:102D80001016000000000000000001020304060706
:102D9000080900000000010203040400000800000C
:102DA000000000000002000100001000CC2D00080F
:102DB0000000002064000000C4010008302E00085C
:102DC00064000020840A0000E0010008CDCCCCBCE7
:102DD00052499DB9000000000AD7A3BC52499DB9D1
:102DE0006F12833A000000000000000000000000A5
:102DF00000000000000000002330303050524144F9
:102E000021233030315052414421000000000000A5
:102E100000000000000000000000000000000000B2
:102E20000100000010000000000000000024F40079
:040000050800018965
:00000001FF
